{
  "contractName": "MissionsSoSService",
  "abi": [
    {
      "inputs": [
        {
          "internalType": "contract ConfidenceToken",
          "name": "_tokenContract",
          "type": "address"
        },
        {
          "internalType": "uint256",
          "name": "_tokenPrice",
          "type": "uint256"
        }
      ],
      "payable": false,
      "stateMutability": "nonpayable",
      "type": "constructor"
    },
    {
      "constant": true,
      "inputs": [],
      "name": "tokenContract",
      "outputs": [
        {
          "internalType": "contract ConfidenceToken",
          "name": "",
          "type": "address"
        }
      ],
      "payable": false,
      "stateMutability": "view",
      "type": "function"
    },
    {
      "constant": true,
      "inputs": [],
      "name": "tokenPrice",
      "outputs": [
        {
          "internalType": "uint256",
          "name": "",
          "type": "uint256"
        }
      ],
      "payable": false,
      "stateMutability": "view",
      "type": "function"
    },
    {
      "constant": true,
      "inputs": [],
      "name": "tokensSold",
      "outputs": [
        {
          "internalType": "uint256",
          "name": "",
          "type": "uint256"
        }
      ],
      "payable": false,
      "stateMutability": "view",
      "type": "function"
    },
    {
      "constant": true,
      "inputs": [],
      "name": "confidenceTokenName",
      "outputs": [
        {
          "internalType": "string",
          "name": "",
          "type": "string"
        }
      ],
      "payable": false,
      "stateMutability": "view",
      "type": "function"
    },
    {
      "constant": true,
      "inputs": [],
      "name": "totalMission",
      "outputs": [
        {
          "internalType": "uint256",
          "name": "",
          "type": "uint256"
        }
      ],
      "payable": false,
      "stateMutability": "view",
      "type": "function"
    },
    {
      "constant": false,
      "inputs": [
        {
          "internalType": "string",
          "name": "_missionDescription",
          "type": "string"
        },
        {
          "internalType": "string",
          "name": "_missionTag",
          "type": "string"
        }
      ],
      "name": "setMission",
      "outputs": [],
      "payable": false,
      "stateMutability": "nonpayable",
      "type": "function"
    },
    {
      "constant": true,
      "inputs": [
        {
          "internalType": "uint256",
          "name": "_missionCode",
          "type": "uint256"
        }
      ],
      "name": "mission",
      "outputs": [
        {
          "internalType": "uint256",
          "name": "",
          "type": "uint256"
        },
        {
          "internalType": "string",
          "name": "",
          "type": "string"
        },
        {
          "internalType": "address",
          "name": "",
          "type": "address"
        },
        {
          "internalType": "string",
          "name": "",
          "type": "string"
        }
      ],
      "payable": false,
      "stateMutability": "view",
      "type": "function"
    },
    {
      "constant": true,
      "inputs": [
        {
          "internalType": "uint256",
          "name": "_missionCode",
          "type": "uint256"
        }
      ],
      "name": "totalMissionSuperMission",
      "outputs": [
        {
          "internalType": "uint256",
          "name": "",
          "type": "uint256"
        }
      ],
      "payable": false,
      "stateMutability": "view",
      "type": "function"
    },
    {
      "constant": false,
      "inputs": [
        {
          "internalType": "uint256",
          "name": "_missionCode",
          "type": "uint256"
        },
        {
          "internalType": "uint256",
          "name": "_superMissionCode",
          "type": "uint256"
        }
      ],
      "name": "setMissionSuperMission",
      "outputs": [],
      "payable": false,
      "stateMutability": "nonpayable",
      "type": "function"
    },
    {
      "constant": true,
      "inputs": [
        {
          "internalType": "uint256",
          "name": "_missionCode",
          "type": "uint256"
        }
      ],
      "name": "missionSuperMission",
      "outputs": [
        {
          "internalType": "uint256",
          "name": "",
          "type": "uint256"
        }
      ],
      "payable": false,
      "stateMutability": "view",
      "type": "function"
    },
    {
      "constant": true,
      "inputs": [],
      "name": "totalConstituent",
      "outputs": [
        {
          "internalType": "uint256",
          "name": "",
          "type": "uint256"
        }
      ],
      "payable": false,
      "stateMutability": "view",
      "type": "function"
    },
    {
      "constant": false,
      "inputs": [],
      "name": "setConstituent",
      "outputs": [],
      "payable": false,
      "stateMutability": "nonpayable",
      "type": "function"
    },
    {
      "constant": true,
      "inputs": [
        {
          "internalType": "uint256",
          "name": "_constituentCode",
          "type": "uint256"
        }
      ],
      "name": "constituent",
      "outputs": [
        {
          "internalType": "uint256",
          "name": "",
          "type": "uint256"
        },
        {
          "internalType": "address",
          "name": "",
          "type": "address"
        }
      ],
      "payable": false,
      "stateMutability": "view",
      "type": "function"
    },
    {
      "constant": false,
      "inputs": [
        {
          "internalType": "uint256",
          "name": "_constituentCode",
          "type": "uint256"
        },
        {
          "internalType": "string",
          "name": "_parameterKey",
          "type": "string"
        },
        {
          "internalType": "string",
          "name": "_parameterValue",
          "type": "string"
        },
        {
          "internalType": "string",
          "name": "_parameterDescription",
          "type": "string"
        }
      ],
      "name": "setConstituentParameter",
      "outputs": [],
      "payable": false,
      "stateMutability": "nonpayable",
      "type": "function"
    },
    {
      "constant": true,
      "inputs": [
        {
          "internalType": "uint256",
          "name": "_constituentCode",
          "type": "uint256"
        }
      ],
      "name": "totalConstituentParameter",
      "outputs": [
        {
          "internalType": "uint256",
          "name": "",
          "type": "uint256"
        }
      ],
      "payable": false,
      "stateMutability": "view",
      "type": "function"
    },
    {
      "constant": true,
      "inputs": [
        {
          "internalType": "uint256",
          "name": "_constituentCode",
          "type": "uint256"
        },
        {
          "internalType": "uint256",
          "name": "_parameterCode",
          "type": "uint256"
        }
      ],
      "name": "constituentParameter",
      "outputs": [
        {
          "internalType": "string",
          "name": "",
          "type": "string"
        },
        {
          "internalType": "string",
          "name": "",
          "type": "string"
        },
        {
          "internalType": "string",
          "name": "",
          "type": "string"
        }
      ],
      "payable": false,
      "stateMutability": "view",
      "type": "function"
    },
    {
      "constant": false,
      "inputs": [
        {
          "internalType": "uint256",
          "name": "_constituentCode",
          "type": "uint256"
        },
        {
          "internalType": "string",
          "name": "_serviceDescription",
          "type": "string"
        },
        {
          "internalType": "uint256",
          "name": "_serviceHTTPMethod",
          "type": "uint256"
        },
        {
          "internalType": "string",
          "name": "serviceURL",
          "type": "string"
        },
        {
          "internalType": "uint256",
          "name": "_serviceContentType",
          "type": "uint256"
        },
        {
          "internalType": "uint256",
          "name": "_serviceRAWDataType",
          "type": "uint256"
        }
      ],
      "name": "setConstituentService",
      "outputs": [],
      "payable": false,
      "stateMutability": "nonpayable",
      "type": "function"
    },
    {
      "constant": true,
      "inputs": [
        {
          "internalType": "uint256",
          "name": "_constituentCode",
          "type": "uint256"
        }
      ],
      "name": "totalConstituentService",
      "outputs": [
        {
          "internalType": "uint256",
          "name": "",
          "type": "uint256"
        }
      ],
      "payable": false,
      "stateMutability": "view",
      "type": "function"
    },
    {
      "constant": true,
      "inputs": [
        {
          "internalType": "uint256",
          "name": "_constituentCode",
          "type": "uint256"
        },
        {
          "internalType": "uint256",
          "name": "_serviceCode",
          "type": "uint256"
        }
      ],
      "name": "constituentService",
      "outputs": [
        {
          "internalType": "uint256",
          "name": "",
          "type": "uint256"
        },
        {
          "internalType": "string",
          "name": "",
          "type": "string"
        },
        {
          "internalType": "enum MissionsSoSService.HTTPMethod",
          "name": "",
          "type": "uint8"
        },
        {
          "internalType": "string",
          "name": "",
          "type": "string"
        },
        {
          "internalType": "enum MissionsSoSService.ContentType",
          "name": "",
          "type": "uint8"
        },
        {
          "internalType": "enum MissionsSoSService.RAWDataType",
          "name": "",
          "type": "uint8"
        }
      ],
      "payable": false,
      "stateMutability": "view",
      "type": "function"
    },
    {
      "constant": false,
      "inputs": [
        {
          "internalType": "uint256",
          "name": "_constituentCode",
          "type": "uint256"
        },
        {
          "internalType": "uint256",
          "name": "_serviceCode",
          "type": "uint256"
        },
        {
          "internalType": "string",
          "name": "_parameterKey",
          "type": "string"
        },
        {
          "internalType": "string",
          "name": "_parameterValue",
          "type": "string"
        },
        {
          "internalType": "string",
          "name": "_parameterDescription",
          "type": "string"
        }
      ],
      "name": "setConstituentServiceParameter",
      "outputs": [
        {
          "internalType": "bool",
          "name": "",
          "type": "bool"
        }
      ],
      "payable": false,
      "stateMutability": "nonpayable",
      "type": "function"
    },
    {
      "constant": true,
      "inputs": [
        {
          "internalType": "uint256",
          "name": "_constituentCode",
          "type": "uint256"
        },
        {
          "internalType": "uint256",
          "name": "_serviceCode",
          "type": "uint256"
        }
      ],
      "name": "totalConstituentServiceParameter",
      "outputs": [
        {
          "internalType": "uint256",
          "name": "",
          "type": "uint256"
        }
      ],
      "payable": false,
      "stateMutability": "view",
      "type": "function"
    },
    {
      "constant": true,
      "inputs": [
        {
          "internalType": "uint256",
          "name": "_constituentCode",
          "type": "uint256"
        },
        {
          "internalType": "uint256",
          "name": "_serviceCode",
          "type": "uint256"
        },
        {
          "internalType": "uint256",
          "name": "_parameterCode",
          "type": "uint256"
        }
      ],
      "name": "constituentServiceParameter",
      "outputs": [
        {
          "internalType": "string",
          "name": "",
          "type": "string"
        },
        {
          "internalType": "string",
          "name": "",
          "type": "string"
        },
        {
          "internalType": "string",
          "name": "",
          "type": "string"
        }
      ],
      "payable": false,
      "stateMutability": "view",
      "type": "function"
    },
    {
      "constant": true,
      "inputs": [],
      "name": "totalState",
      "outputs": [
        {
          "internalType": "uint256",
          "name": "",
          "type": "uint256"
        }
      ],
      "payable": false,
      "stateMutability": "view",
      "type": "function"
    },
    {
      "constant": false,
      "inputs": [
        {
          "internalType": "uint256",
          "name": "_stateState",
          "type": "uint256"
        }
      ],
      "name": "setState",
      "outputs": [],
      "payable": false,
      "stateMutability": "nonpayable",
      "type": "function"
    },
    {
      "constant": true,
      "inputs": [
        {
          "internalType": "uint256",
          "name": "_stateCode",
          "type": "uint256"
        }
      ],
      "name": "state",
      "outputs": [
        {
          "internalType": "uint256",
          "name": "",
          "type": "uint256"
        },
        {
          "internalType": "enum MissionsSoSService.EnumState",
          "name": "",
          "type": "uint8"
        },
        {
          "internalType": "address",
          "name": "",
          "type": "address"
        }
      ],
      "payable": false,
      "stateMutability": "view",
      "type": "function"
    },
    {
      "constant": false,
      "inputs": [
        {
          "internalType": "uint256",
          "name": "_stateCode",
          "type": "uint256"
        },
        {
          "internalType": "uint256",
          "name": "_missionCode",
          "type": "uint256"
        },
        {
          "internalType": "uint256",
          "name": "_constituentCode",
          "type": "uint256"
        },
        {
          "internalType": "uint256",
          "name": "_serviceCode",
          "type": "uint256"
        }
      ],
      "name": "setStateMissionConstituentService",
      "outputs": [],
      "payable": false,
      "stateMutability": "nonpayable",
      "type": "function"
    },
    {
      "constant": true,
      "inputs": [
        {
          "internalType": "uint256",
          "name": "_stateCode",
          "type": "uint256"
        }
      ],
      "name": "stateMissionConstituentService",
      "outputs": [
        {
          "internalType": "uint256",
          "name": "",
          "type": "uint256"
        },
        {
          "internalType": "uint256",
          "name": "",
          "type": "uint256"
        },
        {
          "internalType": "uint256",
          "name": "",
          "type": "uint256"
        },
        {
          "internalType": "uint256",
          "name": "",
          "type": "uint256"
        }
      ],
      "payable": false,
      "stateMutability": "view",
      "type": "function"
    }
  ],
  "bytecode": "0x608060405234801561001057600080fd5b506040516130583803806130588339818101604052604081101561003357600080fd5b81019080805190602001909291908051906020019092919050505033601160006101000a81548173ffffffffffffffffffffffffffffffffffffffff021916908373ffffffffffffffffffffffffffffffffffffffff16021790555081601260006101000a81548173ffffffffffffffffffffffffffffffffffffffff021916908373ffffffffffffffffffffffffffffffffffffffff160217905550806013819055505050612f70806100e86000396000f3fe608060405234801561001057600080fd5b50600436106101a95760003560e01c806379f5b9e5116100f9578063a11e052f11610097578063bb286a8511610071578063bb286a851461126b578063d23ef6a214611289578063d970ab2914611293578063fd3ac2a6146112d5576101a9565b8063a11e052f14611008578063a9e966b7146111fb578063b994b8b414611229576101a9565b806395242d2a116100d357806395242d2a14610cef578063954b26cb14610e695780639da1e84d14610fcc5780639f58a56114610fea576101a9565b806379f5b9e514610b385780637fea59b514610c855780637ff9b59614610cd1576101a9565b80633e4f49e6116101665780634c149646116101405780634c149646146108ba578063518ab2a814610a4d57806355a373d614610a6b57806376418ef314610ab5576101a9565b80633e4f49e61461055557806344263b22146105df57806347edfeee14610768576101a9565b80630b5261ef146101ae5780632b39d5c7146101e65780632b3f2bfb146103fb5780632c577a38146104475780632e6d88c91461049e5780632f4a5cf314610513575b600080fd5b6101e4600480360360408110156101c457600080fd5b810190808035906020019092919080359060200190929190505050611317565b005b6103e1600480360360a08110156101fc57600080fd5b8101908080359060200190929190803590602001909291908035906020019064010000000081111561022d57600080fd5b82018360208201111561023f57600080fd5b8035906020019184600183028401116401000000008311171561026157600080fd5b91908080601f016020809104026020016040519081016040528093929190818152602001838380828437600081840152601f19601f820116905080830192505050505050509192919290803590602001906401000000008111156102c457600080fd5b8201836020820111156102d657600080fd5b803590602001918460018302840111640100000000831117156102f857600080fd5b91908080601f016020809104026020016040519081016040528093929190818152602001838380828437600081840152601f19601f8201169050808301925050505050505091929192908035906020019064010000000081111561035b57600080fd5b82018360208201111561036d57600080fd5b8035906020019184600183028401116401000000008311171561038f57600080fd5b91908080601f016020809104026020016040519081016040528093929190818152602001838380828437600081840152601f19601f820116905080830192505050505050509192919290505050611459565b604051808215151515815260200191505060405180910390f35b6104316004803603604081101561041157600080fd5b810190808035906020019092919080359060200190929190505050611654565b6040518082815260200191505060405180910390f35b6104736004803603602081101561045d57600080fd5b8101908080359060200190929190505050611683565b6040518085815260200184815260200183815260200182815260200194505050505060405180910390f35b6104ca600480360360208110156104b457600080fd5b81019080803590602001909291905050506116d5565b604051808381526020018273ffffffffffffffffffffffffffffffffffffffff1673ffffffffffffffffffffffffffffffffffffffff1681526020019250505060405180910390f35b61053f6004803603602081101561052957600080fd5b8101908080359060200190929190505050611719565b6040518082815260200191505060405180910390f35b6105816004803603602081101561056b57600080fd5b8101908080359060200190929190505050611736565b6040518084815260200183600281111561059757fe5b60ff1681526020018273ffffffffffffffffffffffffffffffffffffffff1673ffffffffffffffffffffffffffffffffffffffff168152602001935050505060405180910390f35b610615600480360360408110156105f557600080fd5b8101908080359060200190929190803590602001909291905050506117a4565b60405180806020018060200180602001848103845287818151815260200191508051906020019080838360005b8381101561065d578082015181840152602081019050610642565b50505050905090810190601f16801561068a5780820380516001836020036101000a031916815260200191505b50848103835286818151815260200191508051906020019080838360005b838110156106c35780820151818401526020810190506106a8565b50505050905090810190601f1680156106f05780820380516001836020036101000a031916815260200191505b50848103825285818151815260200191508051906020019080838360005b8381101561072957808201518184015260208101905061070e565b50505050905090810190601f1680156107565780820380516001836020036101000a031916815260200191505b50965050505050505060405180910390f35b6108b86004803603604081101561077e57600080fd5b810190808035906020019064010000000081111561079b57600080fd5b8201836020820111156107ad57600080fd5b803590602001918460018302840111640100000000831117156107cf57600080fd5b91908080601f016020809104026020016040519081016040528093929190818152602001838380828437600081840152601f19601f8201169050808301925050505050505091929192908035906020019064010000000081111561083257600080fd5b82018360208201111561084457600080fd5b8035906020019184600183028401116401000000008311171561086657600080fd5b91908080601f016020809104026020016040519081016040528093929190818152602001838380828437600081840152601f19601f820116905080830192505050505050509192919290505050611a17565b005b6108fa600480360360608110156108d057600080fd5b81019080803590602001909291908035906020019092919080359060200190929190505050611b12565b60405180806020018060200180602001848103845287818151815260200191508051906020019080838360005b83811015610942578082015181840152602081019050610927565b50505050905090810190601f16801561096f5780820380516001836020036101000a031916815260200191505b50848103835286818151815260200191508051906020019080838360005b838110156109a857808201518184015260208101905061098d565b50505050905090810190601f1680156109d55780820380516001836020036101000a031916815260200191505b50848103825285818151815260200191508051906020019080838360005b83811015610a0e5780820151818401526020810190506109f3565b50505050905090810190601f168015610a3b5780820380516001836020036101000a031916815260200191505b50965050505050505060405180910390f35b610a55611dba565b6040518082815260200191505060405180910390f35b610a73611dc0565b604051808273ffffffffffffffffffffffffffffffffffffffff1673ffffffffffffffffffffffffffffffffffffffff16815260200191505060405180910390f35b610abd611de6565b6040518080602001828103825283818151815260200191508051906020019080838360005b83811015610afd578082015181840152602081019050610ae2565b50505050905090810190601f168015610b2a5780820380516001836020036101000a031916815260200191505b509250505060405180910390f35b610b6460048036036020811015610b4e57600080fd5b8101908080359060200190929190505050611f4e565b60405180858152602001806020018473ffffffffffffffffffffffffffffffffffffffff1673ffffffffffffffffffffffffffffffffffffffff16815260200180602001838103835286818151815260200191508051906020019080838360005b83811015610be0578082015181840152602081019050610bc5565b50505050905090810190601f168015610c0d5780820380516001836020036101000a031916815260200191505b50838103825284818151815260200191508051906020019080838360005b83811015610c46578082015181840152602081019050610c2b565b50505050905090810190601f168015610c735780820380516001836020036101000a031916815260200191505b50965050505050505060405180910390f35b610ccf60048036036080811015610c9b57600080fd5b8101908080359060200190929190803590602001909291908035906020019092919080359060200190929190505050612101565b005b610cd9612374565b6040518082815260200191505060405180910390f35b610e67600480360360c0811015610d0557600080fd5b810190808035906020019092919080359060200190640100000000811115610d2c57600080fd5b820183602082011115610d3e57600080fd5b80359060200191846001830284011164010000000083111715610d6057600080fd5b91908080601f016020809104026020016040519081016040528093929190818152602001838380828437600081840152601f19601f8201169050808301925050505050505091929192908035906020019092919080359060200190640100000000811115610dcd57600080fd5b820183602082011115610ddf57600080fd5b80359060200191846001830284011164010000000083111715610e0157600080fd5b91908080601f016020809104026020016040519081016040528093929190818152602001838380828437600081840152601f19601f820116905080830192505050505050509192919290803590602001909291908035906020019092919050505061237a565b005b610e9f60048036036040811015610e7f57600080fd5b810190808035906020019092919080359060200190929190505050612608565b6040518087815260200180602001866004811115610eb957fe5b60ff16815260200180602001856005811115610ed157fe5b60ff168152602001846005811115610ee557fe5b60ff168152602001838103835288818151815260200191508051906020019080838360005b83811015610f25578082015181840152602081019050610f0a565b50505050905090810190601f168015610f525780820380516001836020036101000a031916815260200191505b50838103825286818151815260200191508051906020019080838360005b83811015610f8b578082015181840152602081019050610f70565b50505050905090810190601f168015610fb85780820380516001836020036101000a031916815260200191505b509850505050505050505060405180910390f35b610fd4612877565b6040518082815260200191505060405180910390f35b610ff2612880565b6040518082815260200191505060405180910390f35b6111f96004803603608081101561101e57600080fd5b81019080803590602001909291908035906020019064010000000081111561104557600080fd5b82018360208201111561105757600080fd5b8035906020019184600183028401116401000000008311171561107957600080fd5b91908080601f016020809104026020016040519081016040528093929190818152602001838380828437600081840152601f19601f820116905080830192505050505050509192919290803590602001906401000000008111156110dc57600080fd5b8201836020820111156110ee57600080fd5b8035906020019184600183028401116401000000008311171561111057600080fd5b91908080601f016020809104026020016040519081016040528093929190818152602001838380828437600081840152601f19601f8201169050808301925050505050505091929192908035906020019064010000000081111561117357600080fd5b82018360208201111561118557600080fd5b803590602001918460018302840111640100000000831117156111a757600080fd5b91908080601f016020809104026020016040519081016040528093929190818152602001838380828437600081840152601f19601f82011690508083019250505050505050919291929050505061288a565b005b6112276004803603602081101561121157600080fd5b8101908080359060200190929190505050612a47565b005b6112556004803603602081101561123f57600080fd5b8101908080359060200190929190505050612ba8565b6040518082815260200191505060405180910390f35b611273612bc5565b6040518082815260200191505060405180910390f35b611291612bcf565b005b6112bf600480360360208110156112a957600080fd5b8101908080359060200190929190505050612c83565b6040518082815260200191505060405180910390f35b611301600480360360208110156112eb57600080fd5b8101908080359060200190929190505050612ca0565b6040518082815260200191505060405180910390f35b600082118015611328575060005482105b61139a576040517f08c379a00000000000000000000000000000000000000000000000000000000081526004018080602001828103825260138152602001807f4d697373696f6e20646f6e27742065786973740000000000000000000000000081525060200191505060405180910390fd5b600081101580156113aa57508181105b6113ff576040517f08c379a000000000000000000000000000000000000000000000000000000000815260040180806020018281038252602a815260200180612eeb602a913960400191505060405180910390fd5b80600360008481526020019081526020016000208190555061143e60016002600085815260200190815260200160002054612cbd90919063ffffffff16565b60026000848152602001908152602001600020819055505050565b60006005600087815260200190815260200160002060010160009054906101000a900473ffffffffffffffffffffffffffffffffffffffff1673ffffffffffffffffffffffffffffffffffffffff163373ffffffffffffffffffffffffffffffffffffffff1614611515576040517f08c379a0000000000000000000000000000000000000000000000000000000008152600401808060200182810382526035815260200180612e636035913960400191505060405180910390fd5b61151d612d45565b6040518060600160405280868152602001858152602001848152509050600b60008881526020019081526020016000206000878152602001908152602001600020819080600181540180825580915050906001820390600052602060002090600302016000909192909190915060008201518160000190805190602001906115a6929190612d66565b5060208201518160010190805190602001906115c3929190612d66565b5060408201518160020190805190602001906115e0929190612d66565b505050506000600a60008981526020019081526020016000206000888152602001908152602001600020549050611621600182612cbd90919063ffffffff16565b600a60008a8152602001908152602001600020600089815260200190815260200160002081905550505095945050505050565b6000600a6000848152602001908152602001600020600083815260200190815260200160002054905092915050565b60008060008084600e600087815260200190815260200160002054600f600088815260200190815260200160002054601060008981526020019081526020016000205493509350935093509193509193565b600080826005600085815260200190815260200160002060010160009054906101000a900473ffffffffffffffffffffffffffffffffffffffff1691509150915091565b600060066000838152602001908152602001600020549050919050565b600080600083600d600086815260200190815260200160002060010160009054906101000a900460ff16600d600087815260200190815260200160002060010160019054906101000a900473ffffffffffffffffffffffffffffffffffffffff169250925092509193909250565b60608060606007600086815260200190815260200160002084815481106117c757fe5b90600052602060002090600302016000016007600087815260200190815260200160002085815481106117f657fe5b906000526020600020906003020160010160076000888152602001908152602001600020868154811061182557fe5b9060005260206000209060030201600201828054600181600116156101000203166002900480601f0160208091040260200160405190810160405280929190818152602001828054600181600116156101000203166002900480156118cb5780601f106118a0576101008083540402835291602001916118cb565b820191906000526020600020905b8154815290600101906020018083116118ae57829003601f168201915b50505050509250818054600181600116156101000203166002900480601f0160208091040260200160405190810160405280929190818152602001828054600181600116156101000203166002900480156119675780601f1061193c57610100808354040283529160200191611967565b820191906000526020600020905b81548152906001019060200180831161194a57829003601f168201915b50505050509150808054600181600116156101000203166002900480601f016020809104026020016040519081016040528092919081815260200182805460018160011615610100020316600290048015611a035780601f106119d857610100808354040283529160200191611a03565b820191906000526020600020905b8154815290600101906020018083116119e657829003601f168201915b505050505090509250925092509250925092565b604051806080016040528060005481526020018381526020013373ffffffffffffffffffffffffffffffffffffffff168152602001828152506001600080548152602001908152602001600020600082015181600001556020820151816001019080519060200190611a8a929190612d66565b5060408201518160020160006101000a81548173ffffffffffffffffffffffffffffffffffffffff021916908373ffffffffffffffffffffffffffffffffffffffff1602179055506060820151816003019080519060200190611aee929190612d66565b50905050611b086001600054612cbd90919063ffffffff16565b6000819055505050565b6060806060600b600087815260200190815260200160002060008681526020019081526020016000208481548110611b4657fe5b9060005260206000209060030201600001600b600088815260200190815260200160002060008781526020019081526020016000208581548110611b8657fe5b9060005260206000209060030201600101600b600089815260200190815260200160002060008881526020019081526020016000208681548110611bc657fe5b9060005260206000209060030201600201828054600181600116156101000203166002900480601f016020809104026020016040519081016040528092919081815260200182805460018160011615610100020316600290048015611c6c5780601f10611c4157610100808354040283529160200191611c6c565b820191906000526020600020905b815481529060010190602001808311611c4f57829003601f168201915b50505050509250818054600181600116156101000203166002900480601f016020809104026020016040519081016040528092919081815260200182805460018160011615610100020316600290048015611d085780601f10611cdd57610100808354040283529160200191611d08565b820191906000526020600020905b815481529060010190602001808311611ceb57829003601f168201915b50505050509150808054600181600116156101000203166002900480601f016020809104026020016040519081016040528092919081815260200182805460018160011615610100020316600290048015611da45780601f10611d7957610100808354040283529160200191611da4565b820191906000526020600020905b815481529060010190602001808311611d8757829003601f168201915b5050505050905092509250925093509350939050565b60145481565b601260009054906101000a900473ffffffffffffffffffffffffffffffffffffffff1681565b6060601260009054906101000a900473ffffffffffffffffffffffffffffffffffffffff1673ffffffffffffffffffffffffffffffffffffffff166306fdde036040518163ffffffff1660e01b815260040160006040518083038186803b158015611e5057600080fd5b505afa158015611e64573d6000803e3d6000fd5b505050506040513d6000823e3d601f19601f820116820180604052506020811015611e8e57600080fd5b8101908080516040519392919084640100000000821115611eae57600080fd5b83820191506020820185811115611ec457600080fd5b8251866001820283011164010000000082111715611ee157600080fd5b8083526020830192505050908051906020019080838360005b83811015611f15578082015181840152602081019050611efa565b50505050905090810190601f168015611f425780820380516001836020036101000a031916815260200191505b50604052505050905090565b600060606000606084600160008781526020019081526020016000206001016001600088815260200190815260200160002060020160009054906101000a900473ffffffffffffffffffffffffffffffffffffffff1660016000898152602001908152602001600020600301828054600181600116156101000203166002900480601f01602080910402602001604051908101604052809291908181526020018280546001816001161561010002031660029004801561204f5780601f106120245761010080835404028352916020019161204f565b820191906000526020600020905b81548152906001019060200180831161203257829003601f168201915b50505050509250808054600181600116156101000203166002900480601f0160208091040260200160405190810160405280929190818152602001828054600181600116156101000203166002900480156120eb5780601f106120c0576101008083540402835291602001916120eb565b820191906000526020600020905b8154815290600101906020018083116120ce57829003601f168201915b5050505050905093509350935093509193509193565b600084101580156121185750612115612880565b84105b61218a576040517f08c379a00000000000000000000000000000000000000000000000000000000081526004018080602001828103825260128152602001807f537461746520646f6e277420657869737473000000000000000000000000000081525060200191505060405180910390fd5b600083101580156121a1575061219e612877565b83105b612213576040517f08c379a00000000000000000000000000000000000000000000000000000000081526004018080602001828103825260138152602001807f4d697373696f6e20646f6e27742065786973740000000000000000000000000081525060200191505060405180910390fd5b6000821015801561222a5750612227612bc5565b82105b61229c576040517f08c379a00000000000000000000000000000000000000000000000000000000081526004018080602001828103825260178152602001807f436f6e7374697475656e7420646f6e277420657869737400000000000000000081525060200191505060405180910390fd5b600081101580156122b457506122b182612c83565b81105b612326576040517f08c379a00000000000000000000000000000000000000000000000000000000081526004018080602001828103825260138152602001807f5365727669636520646f6e27742065786973740000000000000000000000000081525060200191505060405180910390fd5b82600e60008681526020019081526020016000208190555081600f60008681526020019081526020016000208190555080601060008681526020019081526020016000208190555050505050565b60135481565b6005600087815260200190815260200160002060010160009054906101000a900473ffffffffffffffffffffffffffffffffffffffff1673ffffffffffffffffffffffffffffffffffffffff163373ffffffffffffffffffffffffffffffffffffffff1614612434576040517f08c379a0000000000000000000000000000000000000000000000000000000008152600401808060200182810382526027815260200180612f156027913960400191505060405180910390fd5b61243c612de6565b6040518060c00160405280600860008a815260200190815260200160002054815260200187815260200186600481111561247257fe5b600481111561247d57fe5b815260200185815260200184600581111561249457fe5b600581111561249f57fe5b81526020018360058111156124b057fe5b60058111156124bb57fe5b8152509050600960008881526020019081526020016000208190806001815401808255809150509060018203906000526020600020906005020160009091929091909150600082015181600001556020820151816001019080519060200190612525929190612d66565b5060408201518160020160006101000a81548160ff0219169083600481111561254a57fe5b0217905550606082015181600301908051906020019061256b929190612d66565b5060808201518160040160006101000a81548160ff0219169083600581111561259057fe5b021790555060a08201518160040160016101000a81548160ff021916908360058111156125b957fe5b02179055505050506125e86001600860008a815260200190815260200160002054612cbd90919063ffffffff16565b600860008981526020019081526020016000208190555050505050505050565b600060606000606060008086600960008a8152602001908152602001600020888154811061263257fe5b9060005260206000209060050201600101600960008b8152602001908152602001600020898154811061266157fe5b906000526020600020906005020160020160009054906101000a900460ff16600960008c81526020019081526020016000208a8154811061269e57fe5b9060005260206000209060050201600301600960008d81526020019081526020016000208b815481106126cd57fe5b906000526020600020906005020160040160009054906101000a900460ff16600960008e81526020019081526020016000208c8154811061270a57fe5b906000526020600020906005020160040160019054906101000a900460ff16848054600181600116156101000203166002900480601f0160208091040260200160405190810160405280929190818152602001828054600181600116156101000203166002900480156127be5780601f10612793576101008083540402835291602001916127be565b820191906000526020600020905b8154815290600101906020018083116127a157829003601f168201915b50505050509450828054600181600116156101000203166002900480601f01602080910402602001604051908101604052809291908181526020018280546001816001161561010002031660029004801561285a5780601f1061282f5761010080835404028352916020019161285a565b820191906000526020600020905b81548152906001019060200180831161283d57829003601f168201915b505050505092509550955095509550955095509295509295509295565b60008054905090565b6000600c54905090565b6005600085815260200190815260200160002060010160009054906101000a900473ffffffffffffffffffffffffffffffffffffffff1673ffffffffffffffffffffffffffffffffffffffff163373ffffffffffffffffffffffffffffffffffffffff1614612944576040517f08c379a0000000000000000000000000000000000000000000000000000000008152600401808060200182810382526029815260200180612ec26029913960400191505060405180910390fd5b61294c612d45565b604051806060016040528085815260200184815260200183815250905060076000868152602001908152602001600020819080600181540180825580915050906001820390600052602060002090600302016000909192909190915060008201518160000190805190602001906129c4929190612d66565b5060208201518160010190805190602001906129e1929190612d66565b5060408201518160020190805190602001906129fe929190612d66565b50505050612a2960016006600088815260200190815260200160002054612cbd90919063ffffffff16565b60066000878152602001908152602001600020819055505050505050565b60008110158015612a59575060028111155b612aae576040517f08c379a000000000000000000000000000000000000000000000000000000000815260040180806020018281038252602a815260200180612e98602a913960400191505060405180910390fd5b6040518060600160405280600c548152602001826002811115612acd57fe5b6002811115612ad857fe5b81526020013373ffffffffffffffffffffffffffffffffffffffff16815250600d6000600c5481526020019081526020016000206000820151816000015560208201518160010160006101000a81548160ff02191690836002811115612b3a57fe5b021790555060408201518160010160016101000a81548173ffffffffffffffffffffffffffffffffffffffff021916908373ffffffffffffffffffffffffffffffffffffffff160217905550905050612b9f6001600c54612cbd90919063ffffffff16565b600c8190555050565b600060036000838152602001908152602001600020549050919050565b6000600454905090565b604051806040016040528060045481526020013373ffffffffffffffffffffffffffffffffffffffff168152506005600060045481526020019081526020016000206000820151816000015560208201518160010160006101000a81548173ffffffffffffffffffffffffffffffffffffffff021916908373ffffffffffffffffffffffffffffffffffffffff160217905550905050612c7b6001600454612cbd90919063ffffffff16565b600481905550565b600060086000838152602001908152602001600020549050919050565b600060026000838152602001908152602001600020549050919050565b600080828401905083811015612d3b576040517f08c379a000000000000000000000000000000000000000000000000000000000815260040180806020018281038252601b8152602001807f536166654d6174683a206164646974696f6e206f766572666c6f77000000000081525060200191505060405180910390fd5b8091505092915050565b60405180606001604052806060815260200160608152602001606081525090565b828054600181600116156101000203166002900490600052602060002090601f016020900481019282601f10612da757805160ff1916838001178555612dd5565b82800160010185558215612dd5579182015b82811115612dd4578251825591602001919060010190612db9565b5b509050612de29190612e3d565b5090565b6040518060c00160405280600081526020016060815260200160006004811115612e0c57fe5b81526020016060815260200160006005811115612e2557fe5b815260200160006005811115612e3757fe5b81525090565b612e5f91905b80821115612e5b576000816000905550600101612e43565b5090565b9056fe4f6e6c7920436f6e7374697475656e74206f776e65722063616e2061646420706172616d657465727320746f20736572766963657343414e4449444154453a20302c20415641494c41424c453a20312c20554e415641494c41424c453a20324f6e6c7920436f6e7374697475656e74206f776e65722063616e2061646420706172616d657465727353757065724d697373696f6e20697320657175616c206f72206d6f7265207468616e206d697373696f6e4f6e6c7920436f6e7374697475656e74206f776e65722063616e20616464207365727669636573a265627a7a72315820572cfceb16e8be265aa6e68e7aa8fdc0a724ae80d429ace65b701d09f768283d64736f6c63430005100032",
  "source": "pragma solidity  >=0.5.16 <0.7.0;\r\n\r\nimport \"../node_modules/openzeppelin-solidity/contracts/math/SafeMath.sol\";\r\nimport \"./ConfidenceToken.sol\";\r\n\r\n\r\ncontract MissionsSoSService{\r\n\r\n    using SafeMath for uint;\r\n\r\n    enum HTTPMethod  {GET, POST, PATCH, PUT, DELETE}\r\n    enum ContentType {none, data, URL_encoded, raw, binary, GraphQL}\r\n    enum RAWDataType {none, Text, JavaScript, JSON, HTML, XML}\r\n    enum EnumState {CANDIDATE, AVAILABLE, UNAVAILABLE}\r\n\r\n   struct Mission {\r\n        uint missionCode;\r\n        string missionDescription;\r\n        address missionOwner;\r\n        string missionTag;\r\n    }\r\n\r\n    struct Parameter {\r\n        string parameterKey;\r\n        string parameterValue;\r\n        string parameterDescription;\r\n    }\r\n\r\n    struct Constituent {\r\n        uint constituentCode;\r\n        address constituentOwner;\r\n    }\r\n\r\n    struct Service {\r\n        uint serviceCode;\r\n        string serviceDescription;\r\n        HTTPMethod serviceHTTPMethod;\r\n        string serviceURL;\r\n        ContentType serviceContentType;\r\n        RAWDataType serviceRAWDataType;\r\n    }\r\n\r\n    struct State {\r\n        uint stateCode;\r\n        EnumState stateState;\r\n        address stateOwner;\r\n    }\r\n\r\n\r\n    //--------Mission---------\r\n    uint private _totalMission;\r\n    mapping(uint => Mission) private missionMap;\r\n\r\n    //-------Mission SuperMission-------\r\n    mapping(uint => uint) private _totalMissionSuperMission;\r\n    mapping(uint => uint) private missionSuperMissionMap;\r\n\r\n    //-------Constituent-------\r\n    uint private _totalConstituent;\r\n    mapping(uint => Constituent) private constituentMap;\r\n    //--Constituent Parameter--\r\n    mapping(uint => uint) private _totalConstituentParameter;\r\n    mapping(uint => Parameter[]) private constituentParameterMap;\r\n    //---Constituent Service---\r\n    mapping(uint => uint) private _totalConstituentService;\r\n    mapping(uint => Service[]) private constituentServiceMap;\r\n\r\n    //-------Constituent Service Parameter-------\r\n    mapping(uint => mapping(uint => uint)) private _totalConstituentServiceParameter;\r\n    mapping(uint => mapping(uint => Parameter[])) private constituentServiceParameterMap;\r\n\r\n    //-------State-------\r\n    uint private _totalState;\r\n    mapping(uint => State) private stateMap;\r\n\r\n    //-------State Mission ---------\r\n    mapping(uint => uint) private stateMissionMap;\r\n\r\n    //-------State Constituent ---------\r\n    mapping(uint => uint) private stateConstituentMap;\r\n\r\n    //-------State Service ---------\r\n    mapping(uint => uint) private stateServiceMap;\r\n\r\n\r\n    //-------------Token-------------\r\n    address payable admin;\r\n    ConfidenceToken public tokenContract;\r\n    uint256 public tokenPrice;\r\n    uint256 public tokensSold;\r\n\r\n    function confidenceTokenName() public view returns (string memory) {\r\n        return tokenContract.name();\r\n    }\r\n\r\n    //--------Constructor---------\r\n\r\n    constructor (ConfidenceToken _tokenContract, uint256 _tokenPrice) public {\r\n        admin = msg.sender;\r\n        tokenContract = _tokenContract;\r\n        tokenPrice = _tokenPrice;\r\n    }\r\n\r\n    //--------Mission---------\r\n\r\n\r\n    function totalMission() public view returns (uint) {\r\n        return _totalMission;\r\n    }\r\n\r\n    function setMission(string memory _missionDescription, string memory _missionTag) public {\r\n        missionMap[_totalMission] = Mission(_totalMission, _missionDescription, msg.sender, _missionTag);\r\n        _totalMission = _totalMission.add(1);\r\n    }\r\n\r\n    function mission(uint  _missionCode) public view returns (uint, string memory, address, string memory) {\r\n        return (_missionCode,\r\n            missionMap[_missionCode].missionDescription,\r\n            missionMap[_missionCode].missionOwner,\r\n            missionMap[_missionCode].missionTag\r\n        );\r\n    }\r\n\r\n    //-----------Mission SuperMission -----------\r\n    function totalMissionSuperMission(uint _missionCode) public view returns (uint) {\r\n        return _totalMissionSuperMission[_missionCode];\r\n    }\r\n\r\n    function setMissionSuperMission(uint _missionCode, uint _superMissionCode) public {\r\n        require(_missionCode>0&&_missionCode<_totalMission,\"Mission don't exist\");\r\n        require(_superMissionCode>=0&&_superMissionCode<_missionCode,\"SuperMission is equal or more than mission\");\r\n        missionSuperMissionMap[_missionCode] = _superMissionCode;\r\n        _totalMissionSuperMission[_missionCode] = _totalMissionSuperMission[_missionCode].add(1);\r\n    }\r\n\r\n    function missionSuperMission(uint  _missionCode) public view returns (uint) {\r\n        return (missionSuperMissionMap[_missionCode]);\r\n    }\r\n\r\n    //-------Constituent-------\r\n\r\n    function totalConstituent() public view returns (uint) {\r\n        return _totalConstituent;\r\n    }\r\n\r\n    function setConstituent() public {\r\n        constituentMap[_totalConstituent] = Constituent(_totalConstituent, msg.sender);\r\n        _totalConstituent = _totalConstituent.add(1);\r\n    }\r\n\r\n    function constituent(uint  _constituentCode) public view returns (uint, address) {\r\n        return (_constituentCode, constituentMap[_constituentCode].constituentOwner);\r\n    }\r\n\r\n    //--Constituent Parameter--\r\n\r\n    function setConstituentParameter(uint  _constituentCode,\r\n    string memory _parameterKey,string memory _parameterValue,\r\n    string memory _parameterDescription) public {\r\n        require(msg.sender==constituentMap[_constituentCode].constituentOwner,\"Only Constituent owner can add parameters\");\r\n        Parameter memory _parameter = Parameter(_parameterKey,\r\n        _parameterValue, _parameterDescription);\r\n        constituentParameterMap[_constituentCode].push(_parameter);\r\n        _totalConstituentParameter[_constituentCode] = _totalConstituentParameter[_constituentCode].add(1);\r\n\r\n    }\r\n\r\n    function totalConstituentParameter(uint _constituentCode) public view returns (uint) {\r\n        return _totalConstituentParameter[_constituentCode];\r\n    }\r\n\r\n    function constituentParameter(uint  _constituentCode,\r\n    uint _parameterCode) public view returns (string memory, string memory, string memory) {\r\n        return (constituentParameterMap[_constituentCode][_parameterCode].parameterKey,\r\n            constituentParameterMap[_constituentCode][_parameterCode].parameterValue,\r\n            constituentParameterMap[_constituentCode][_parameterCode].parameterDescription\r\n        );\r\n    }\r\n\r\n    //--Constituent Service----\r\n\r\n    function setConstituentService(uint  _constituentCode,\r\n    string memory _serviceDescription,uint _serviceHTTPMethod,\r\n    string memory serviceURL, uint _serviceContentType,\r\n    uint _serviceRAWDataType) public {\r\n        require(msg.sender==constituentMap[_constituentCode].constituentOwner,\"Only Constituent owner can add services\");\r\n        Service memory _service = Service(_totalConstituentService[_constituentCode],\r\n        _serviceDescription, HTTPMethod(_serviceHTTPMethod),serviceURL,\r\n        ContentType(_serviceContentType),RAWDataType(_serviceRAWDataType));\r\n        constituentServiceMap[_constituentCode].push(_service);\r\n        _totalConstituentService[_constituentCode] = _totalConstituentService[_constituentCode].add(1);\r\n    }\r\n\r\n    function totalConstituentService(uint _constituentCode) public view returns (uint) {\r\n        return _totalConstituentService[_constituentCode];\r\n    }\r\n\r\n    function constituentService(uint  _constituentCode,uint _serviceCode)\r\n    public view returns (uint, string memory, HTTPMethod,string memory,ContentType,RAWDataType) {\r\n        return (_serviceCode,\r\n            constituentServiceMap[_constituentCode][_serviceCode].serviceDescription,\r\n            constituentServiceMap[_constituentCode][_serviceCode].serviceHTTPMethod,\r\n            constituentServiceMap[_constituentCode][_serviceCode].serviceURL,\r\n            constituentServiceMap[_constituentCode][_serviceCode].serviceContentType,\r\n            constituentServiceMap[_constituentCode][_serviceCode].serviceRAWDataType\r\n        );\r\n    }\r\n\r\n    //--Constituent Service Parameter--\r\n\r\n    function setConstituentServiceParameter(uint  _constituentCode,uint  _serviceCode,\r\n    string memory _parameterKey,string memory _parameterValue,\r\n    string memory _parameterDescription) public returns (bool) {\r\n        require(msg.sender==constituentMap[_constituentCode].constituentOwner,\"Only Constituent owner can add parameters to services\");\r\n        Parameter memory _parameter = Parameter(_parameterKey, _parameterValue,_parameterDescription);\r\n        constituentServiceParameterMap[_constituentCode][_serviceCode].push(_parameter);\r\n        uint auxTotal = _totalConstituentServiceParameter[_constituentCode][_serviceCode];\r\n        _totalConstituentServiceParameter[_constituentCode][_serviceCode] = auxTotal.add(1);\r\n    }\r\n\r\n    function totalConstituentServiceParameter(uint _constituentCode,\r\n    uint _serviceCode) public view returns (uint) {\r\n        return _totalConstituentServiceParameter[_constituentCode][_serviceCode];\r\n    }\r\n\r\n    function constituentServiceParameter(uint  _constituentCode,\r\n    uint _serviceCode, uint _parameterCode)\r\n    public view returns (string memory, string memory, string memory) {\r\n        return (\r\n            (constituentServiceParameterMap[_constituentCode][_serviceCode])[_parameterCode].parameterKey,\r\n            (constituentServiceParameterMap[_constituentCode][_serviceCode])[_parameterCode].parameterValue,\r\n            (constituentServiceParameterMap[_constituentCode][_serviceCode])[_parameterCode].parameterDescription\r\n        );\r\n    }\r\n\r\n    //-----------State  -----------\r\n\r\n    function totalState() public view returns (uint) {\r\n        return _totalState;\r\n    }\r\n\r\n    function setState(uint _stateState) public {\r\n        require(_stateState>=0&&_stateState<=2,\"CANDIDATE: 0, AVAILABLE: 1, UNAVAILABLE: 2\");\r\n        stateMap[_totalState] = State(_totalState, EnumState(_stateState), msg.sender);\r\n        _totalState = _totalState.add(1);\r\n    }\r\n\r\n    function state(uint  _stateCode) public view returns (uint, EnumState, address) {\r\n        return (_stateCode,\r\n            stateMap[_stateCode].stateState,\r\n            stateMap[_stateCode].stateOwner\r\n        );\r\n    }\r\n\r\n    //-----------State Mission Constituent Service -----------\r\n\r\n    function setStateMissionConstituentService(uint _stateCode,uint _missionCode,\r\n    uint _constituentCode, uint _serviceCode) public {\r\n        require(_stateCode>=0 && _stateCode<totalState(),\"State don't exists\");\r\n        require(_missionCode>=0 && _missionCode<totalMission(),\"Mission don't exist\");\r\n        require(_constituentCode>=0 && _constituentCode<totalConstituent(),\"Constituent don't exist\");\r\n        require(_serviceCode>=0 && _serviceCode<totalConstituentService(_constituentCode),\"Service don't exist\");\r\n        stateMissionMap[_stateCode] = _missionCode;\r\n        stateConstituentMap[_stateCode] = _constituentCode;\r\n        stateServiceMap[_stateCode] = _serviceCode;\r\n    }\r\n\r\n    function stateMissionConstituentService(uint _stateCode)\r\n    public view returns (uint, uint, uint, uint){\r\n        return (\r\n            _stateCode,\r\n            stateMissionMap[_stateCode],\r\n            stateConstituentMap[_stateCode],\r\n            stateServiceMap[_stateCode]\r\n        );\r\n    }\r\n\r\n}",
  "sourcePath": "D:\\06_solidityProjects\\pruebas\\zeppelinConfidenceToken\\contracts\\MissionsSoSService.sol",
  "compiler": {
    "name": "solc",
    "version": "0.5.16+commit.9c3226ce.Emscripten.clang"
  },
  "schemaVersion": "3.0.23",
  "updatedAt": "2020-03-01T12:30:18.237Z",
  "networkType": "ethereum",
  "devdoc": {
    "methods": {}
  },
  "userdoc": {
    "methods": {}
  }
}