{
  "contractName": "MissionsSoSService",
  "abi": [
    {
      "inputs": [],
      "payable": false,
      "stateMutability": "nonpayable",
      "type": "constructor"
    },
    {
      "constant": true,
      "inputs": [],
      "name": "confidenceTokenName",
      "outputs": [
        {
          "internalType": "string",
          "name": "",
          "type": "string"
        }
      ],
      "payable": false,
      "stateMutability": "view",
      "type": "function"
    },
    {
      "constant": true,
      "inputs": [],
      "name": "totalMission",
      "outputs": [
        {
          "internalType": "uint256",
          "name": "",
          "type": "uint256"
        }
      ],
      "payable": false,
      "stateMutability": "view",
      "type": "function"
    },
    {
      "constant": false,
      "inputs": [
        {
          "internalType": "string",
          "name": "_missionDescription",
          "type": "string"
        },
        {
          "internalType": "string",
          "name": "_missionTag",
          "type": "string"
        }
      ],
      "name": "setMission",
      "outputs": [],
      "payable": false,
      "stateMutability": "nonpayable",
      "type": "function"
    },
    {
      "constant": true,
      "inputs": [
        {
          "internalType": "uint256",
          "name": "_missionCode",
          "type": "uint256"
        }
      ],
      "name": "mission",
      "outputs": [
        {
          "internalType": "uint256",
          "name": "",
          "type": "uint256"
        },
        {
          "internalType": "string",
          "name": "",
          "type": "string"
        },
        {
          "internalType": "address",
          "name": "",
          "type": "address"
        },
        {
          "internalType": "string",
          "name": "",
          "type": "string"
        }
      ],
      "payable": false,
      "stateMutability": "view",
      "type": "function"
    },
    {
      "constant": true,
      "inputs": [
        {
          "internalType": "uint256",
          "name": "_missionCode",
          "type": "uint256"
        }
      ],
      "name": "totalMissionSuperMission",
      "outputs": [
        {
          "internalType": "uint256",
          "name": "",
          "type": "uint256"
        }
      ],
      "payable": false,
      "stateMutability": "view",
      "type": "function"
    },
    {
      "constant": false,
      "inputs": [
        {
          "internalType": "uint256",
          "name": "_missionCode",
          "type": "uint256"
        },
        {
          "internalType": "uint256",
          "name": "_superMissionCode",
          "type": "uint256"
        }
      ],
      "name": "setMissionSuperMission",
      "outputs": [],
      "payable": false,
      "stateMutability": "nonpayable",
      "type": "function"
    },
    {
      "constant": true,
      "inputs": [
        {
          "internalType": "uint256",
          "name": "_missionCode",
          "type": "uint256"
        }
      ],
      "name": "missionSuperMission",
      "outputs": [
        {
          "internalType": "uint256",
          "name": "",
          "type": "uint256"
        }
      ],
      "payable": false,
      "stateMutability": "view",
      "type": "function"
    },
    {
      "constant": true,
      "inputs": [],
      "name": "totalConstituent",
      "outputs": [
        {
          "internalType": "uint256",
          "name": "",
          "type": "uint256"
        }
      ],
      "payable": false,
      "stateMutability": "view",
      "type": "function"
    },
    {
      "constant": false,
      "inputs": [],
      "name": "setConstituent",
      "outputs": [],
      "payable": false,
      "stateMutability": "nonpayable",
      "type": "function"
    },
    {
      "constant": true,
      "inputs": [
        {
          "internalType": "uint256",
          "name": "_constituentCode",
          "type": "uint256"
        }
      ],
      "name": "constituent",
      "outputs": [
        {
          "internalType": "uint256",
          "name": "",
          "type": "uint256"
        },
        {
          "internalType": "address",
          "name": "",
          "type": "address"
        }
      ],
      "payable": false,
      "stateMutability": "view",
      "type": "function"
    },
    {
      "constant": false,
      "inputs": [
        {
          "internalType": "uint256",
          "name": "_constituentCode",
          "type": "uint256"
        },
        {
          "internalType": "string",
          "name": "_parameterKey",
          "type": "string"
        },
        {
          "internalType": "string",
          "name": "_parameterValue",
          "type": "string"
        },
        {
          "internalType": "string",
          "name": "_parameterDescription",
          "type": "string"
        }
      ],
      "name": "setConstituentParameter",
      "outputs": [],
      "payable": false,
      "stateMutability": "nonpayable",
      "type": "function"
    },
    {
      "constant": true,
      "inputs": [
        {
          "internalType": "uint256",
          "name": "_constituentCode",
          "type": "uint256"
        }
      ],
      "name": "totalConstituentParameter",
      "outputs": [
        {
          "internalType": "uint256",
          "name": "",
          "type": "uint256"
        }
      ],
      "payable": false,
      "stateMutability": "view",
      "type": "function"
    },
    {
      "constant": true,
      "inputs": [
        {
          "internalType": "uint256",
          "name": "_constituentCode",
          "type": "uint256"
        },
        {
          "internalType": "uint256",
          "name": "_parameterCode",
          "type": "uint256"
        }
      ],
      "name": "constituentParameter",
      "outputs": [
        {
          "internalType": "string",
          "name": "",
          "type": "string"
        },
        {
          "internalType": "string",
          "name": "",
          "type": "string"
        },
        {
          "internalType": "string",
          "name": "",
          "type": "string"
        }
      ],
      "payable": false,
      "stateMutability": "view",
      "type": "function"
    },
    {
      "constant": false,
      "inputs": [
        {
          "internalType": "uint256",
          "name": "_constituentCode",
          "type": "uint256"
        },
        {
          "internalType": "string",
          "name": "_serviceDescription",
          "type": "string"
        },
        {
          "internalType": "uint256",
          "name": "_serviceHTTPMethod",
          "type": "uint256"
        },
        {
          "internalType": "string",
          "name": "serviceURL",
          "type": "string"
        },
        {
          "internalType": "uint256",
          "name": "_serviceContentType",
          "type": "uint256"
        },
        {
          "internalType": "uint256",
          "name": "_serviceRAWDataType",
          "type": "uint256"
        }
      ],
      "name": "setConstituentService",
      "outputs": [],
      "payable": false,
      "stateMutability": "nonpayable",
      "type": "function"
    },
    {
      "constant": true,
      "inputs": [
        {
          "internalType": "uint256",
          "name": "_constituentCode",
          "type": "uint256"
        }
      ],
      "name": "totalConstituentService",
      "outputs": [
        {
          "internalType": "uint256",
          "name": "",
          "type": "uint256"
        }
      ],
      "payable": false,
      "stateMutability": "view",
      "type": "function"
    },
    {
      "constant": true,
      "inputs": [
        {
          "internalType": "uint256",
          "name": "_constituentCode",
          "type": "uint256"
        },
        {
          "internalType": "uint256",
          "name": "_serviceCode",
          "type": "uint256"
        }
      ],
      "name": "constituentService",
      "outputs": [
        {
          "internalType": "uint256",
          "name": "",
          "type": "uint256"
        },
        {
          "internalType": "string",
          "name": "",
          "type": "string"
        },
        {
          "internalType": "enum MissionsSoSService.HTTPMethod",
          "name": "",
          "type": "uint8"
        },
        {
          "internalType": "string",
          "name": "",
          "type": "string"
        },
        {
          "internalType": "enum MissionsSoSService.ContentType",
          "name": "",
          "type": "uint8"
        },
        {
          "internalType": "enum MissionsSoSService.RAWDataType",
          "name": "",
          "type": "uint8"
        }
      ],
      "payable": false,
      "stateMutability": "view",
      "type": "function"
    },
    {
      "constant": false,
      "inputs": [
        {
          "internalType": "uint256",
          "name": "_constituentCode",
          "type": "uint256"
        },
        {
          "internalType": "uint256",
          "name": "_serviceCode",
          "type": "uint256"
        },
        {
          "internalType": "string",
          "name": "_parameterKey",
          "type": "string"
        },
        {
          "internalType": "string",
          "name": "_parameterValue",
          "type": "string"
        },
        {
          "internalType": "string",
          "name": "_parameterDescription",
          "type": "string"
        }
      ],
      "name": "setConstituentServiceParameter",
      "outputs": [
        {
          "internalType": "bool",
          "name": "",
          "type": "bool"
        }
      ],
      "payable": false,
      "stateMutability": "nonpayable",
      "type": "function"
    },
    {
      "constant": true,
      "inputs": [
        {
          "internalType": "uint256",
          "name": "_constituentCode",
          "type": "uint256"
        },
        {
          "internalType": "uint256",
          "name": "_serviceCode",
          "type": "uint256"
        }
      ],
      "name": "totalConstituentServiceParameter",
      "outputs": [
        {
          "internalType": "uint256",
          "name": "",
          "type": "uint256"
        }
      ],
      "payable": false,
      "stateMutability": "view",
      "type": "function"
    },
    {
      "constant": true,
      "inputs": [
        {
          "internalType": "uint256",
          "name": "_constituentCode",
          "type": "uint256"
        },
        {
          "internalType": "uint256",
          "name": "_serviceCode",
          "type": "uint256"
        },
        {
          "internalType": "uint256",
          "name": "_parameterCode",
          "type": "uint256"
        }
      ],
      "name": "constituentServiceParameter",
      "outputs": [
        {
          "internalType": "string",
          "name": "",
          "type": "string"
        },
        {
          "internalType": "string",
          "name": "",
          "type": "string"
        },
        {
          "internalType": "string",
          "name": "",
          "type": "string"
        }
      ],
      "payable": false,
      "stateMutability": "view",
      "type": "function"
    },
    {
      "constant": true,
      "inputs": [],
      "name": "totalState",
      "outputs": [
        {
          "internalType": "uint256",
          "name": "",
          "type": "uint256"
        }
      ],
      "payable": false,
      "stateMutability": "view",
      "type": "function"
    },
    {
      "constant": false,
      "inputs": [
        {
          "internalType": "uint256",
          "name": "_stateState",
          "type": "uint256"
        }
      ],
      "name": "setState",
      "outputs": [],
      "payable": false,
      "stateMutability": "nonpayable",
      "type": "function"
    },
    {
      "constant": true,
      "inputs": [
        {
          "internalType": "uint256",
          "name": "_stateCode",
          "type": "uint256"
        }
      ],
      "name": "state",
      "outputs": [
        {
          "internalType": "uint256",
          "name": "",
          "type": "uint256"
        },
        {
          "internalType": "enum MissionsSoSService.EnumState",
          "name": "",
          "type": "uint8"
        },
        {
          "internalType": "address",
          "name": "",
          "type": "address"
        }
      ],
      "payable": false,
      "stateMutability": "view",
      "type": "function"
    },
    {
      "constant": false,
      "inputs": [
        {
          "internalType": "uint256",
          "name": "_stateCode",
          "type": "uint256"
        },
        {
          "internalType": "uint256",
          "name": "_missionCode",
          "type": "uint256"
        },
        {
          "internalType": "uint256",
          "name": "_constituentCode",
          "type": "uint256"
        },
        {
          "internalType": "uint256",
          "name": "_serviceCode",
          "type": "uint256"
        }
      ],
      "name": "setStateMissionConstituentService",
      "outputs": [],
      "payable": false,
      "stateMutability": "nonpayable",
      "type": "function"
    },
    {
      "constant": true,
      "inputs": [
        {
          "internalType": "uint256",
          "name": "_stateCode",
          "type": "uint256"
        }
      ],
      "name": "stateMissionConstituentService",
      "outputs": [
        {
          "internalType": "uint256",
          "name": "",
          "type": "uint256"
        },
        {
          "internalType": "uint256",
          "name": "",
          "type": "uint256"
        },
        {
          "internalType": "uint256",
          "name": "",
          "type": "uint256"
        },
        {
          "internalType": "uint256",
          "name": "",
          "type": "uint256"
        }
      ],
      "payable": false,
      "stateMutability": "view",
      "type": "function"
    }
  ],
  "bytecode": "0x608060405234801561001057600080fd5b507399e9af23c8982302df19c652e6569e12e7f172d2601160006101000a81548173ffffffffffffffffffffffffffffffffffffffff021916908373ffffffffffffffffffffffffffffffffffffffff160217905550612e67806100756000396000f3fe608060405234801561001057600080fd5b50600436106101585760003560e01c80637fea59b5116100c3578063a9e966b71161007c578063a9e966b714611124578063b994b8b414611152578063bb286a8514611194578063d23ef6a2146111b2578063d970ab29146111bc578063fd3ac2a6146111fe57610158565b80637fea59b514610bcc57806395242d2a14610c18578063954b26cb14610d925780639da1e84d14610ef55780639f58a56114610f13578063a11e052f14610f3157610158565b80633e4f49e6116101155780633e4f49e61461050457806344263b221461058e57806347edfeee146107175780634c1496461461086957806376418ef3146109fc57806379f5b9e514610a7f57610158565b80630b5261ef1461015d5780632b39d5c7146101955780632b3f2bfb146103aa5780632c577a38146103f65780632e6d88c91461044d5780632f4a5cf3146104c2575b600080fd5b6101936004803603604081101561017357600080fd5b810190808035906020019092919080359060200190929190505050611240565b005b610390600480360360a08110156101ab57600080fd5b810190808035906020019092919080359060200190929190803590602001906401000000008111156101dc57600080fd5b8201836020820111156101ee57600080fd5b8035906020019184600183028401116401000000008311171561021057600080fd5b91908080601f016020809104026020016040519081016040528093929190818152602001838380828437600081840152601f19601f8201169050808301925050505050505091929192908035906020019064010000000081111561027357600080fd5b82018360208201111561028557600080fd5b803590602001918460018302840111640100000000831117156102a757600080fd5b91908080601f016020809104026020016040519081016040528093929190818152602001838380828437600081840152601f19601f8201169050808301925050505050505091929192908035906020019064010000000081111561030a57600080fd5b82018360208201111561031c57600080fd5b8035906020019184600183028401116401000000008311171561033e57600080fd5b91908080601f016020809104026020016040519081016040528093929190818152602001838380828437600081840152601f19601f820116905080830192505050505050509192919290505050611382565b604051808215151515815260200191505060405180910390f35b6103e0600480360360408110156103c057600080fd5b81019080803590602001909291908035906020019092919050505061157d565b6040518082815260200191505060405180910390f35b6104226004803603602081101561040c57600080fd5b81019080803590602001909291905050506115ac565b6040518085815260200184815260200183815260200182815260200194505050505060405180910390f35b6104796004803603602081101561046357600080fd5b81019080803590602001909291905050506115fe565b604051808381526020018273ffffffffffffffffffffffffffffffffffffffff1673ffffffffffffffffffffffffffffffffffffffff1681526020019250505060405180910390f35b6104ee600480360360208110156104d857600080fd5b8101908080359060200190929190505050611642565b6040518082815260200191505060405180910390f35b6105306004803603602081101561051a57600080fd5b810190808035906020019092919050505061165f565b6040518084815260200183600281111561054657fe5b60ff1681526020018273ffffffffffffffffffffffffffffffffffffffff1673ffffffffffffffffffffffffffffffffffffffff168152602001935050505060405180910390f35b6105c4600480360360408110156105a457600080fd5b8101908080359060200190929190803590602001909291905050506116cd565b60405180806020018060200180602001848103845287818151815260200191508051906020019080838360005b8381101561060c5780820151818401526020810190506105f1565b50505050905090810190601f1680156106395780820380516001836020036101000a031916815260200191505b50848103835286818151815260200191508051906020019080838360005b83811015610672578082015181840152602081019050610657565b50505050905090810190601f16801561069f5780820380516001836020036101000a031916815260200191505b50848103825285818151815260200191508051906020019080838360005b838110156106d85780820151818401526020810190506106bd565b50505050905090810190601f1680156107055780820380516001836020036101000a031916815260200191505b50965050505050505060405180910390f35b6108676004803603604081101561072d57600080fd5b810190808035906020019064010000000081111561074a57600080fd5b82018360208201111561075c57600080fd5b8035906020019184600183028401116401000000008311171561077e57600080fd5b91908080601f016020809104026020016040519081016040528093929190818152602001838380828437600081840152601f19601f820116905080830192505050505050509192919290803590602001906401000000008111156107e157600080fd5b8201836020820111156107f357600080fd5b8035906020019184600183028401116401000000008311171561081557600080fd5b91908080601f016020809104026020016040519081016040528093929190818152602001838380828437600081840152601f19601f820116905080830192505050505050509192919290505050611940565b005b6108a96004803603606081101561087f57600080fd5b81019080803590602001909291908035906020019092919080359060200190929190505050611a3b565b60405180806020018060200180602001848103845287818151815260200191508051906020019080838360005b838110156108f15780820151818401526020810190506108d6565b50505050905090810190601f16801561091e5780820380516001836020036101000a031916815260200191505b50848103835286818151815260200191508051906020019080838360005b8381101561095757808201518184015260208101905061093c565b50505050905090810190601f1680156109845780820380516001836020036101000a031916815260200191505b50848103825285818151815260200191508051906020019080838360005b838110156109bd5780820151818401526020810190506109a2565b50505050905090810190601f1680156109ea5780820380516001836020036101000a031916815260200191505b50965050505050505060405180910390f35b610a04611ce3565b6040518080602001828103825283818151815260200191508051906020019080838360005b83811015610a44578082015181840152602081019050610a29565b50505050905090810190601f168015610a715780820380516001836020036101000a031916815260200191505b509250505060405180910390f35b610aab60048036036020811015610a9557600080fd5b8101908080359060200190929190505050611e4b565b60405180858152602001806020018473ffffffffffffffffffffffffffffffffffffffff1673ffffffffffffffffffffffffffffffffffffffff16815260200180602001838103835286818151815260200191508051906020019080838360005b83811015610b27578082015181840152602081019050610b0c565b50505050905090810190601f168015610b545780820380516001836020036101000a031916815260200191505b50838103825284818151815260200191508051906020019080838360005b83811015610b8d578082015181840152602081019050610b72565b50505050905090810190601f168015610bba5780820380516001836020036101000a031916815260200191505b50965050505050505060405180910390f35b610c1660048036036080811015610be257600080fd5b8101908080359060200190929190803590602001909291908035906020019092919080359060200190929190505050611ffe565b005b610d90600480360360c0811015610c2e57600080fd5b810190808035906020019092919080359060200190640100000000811115610c5557600080fd5b820183602082011115610c6757600080fd5b80359060200191846001830284011164010000000083111715610c8957600080fd5b91908080601f016020809104026020016040519081016040528093929190818152602001838380828437600081840152601f19601f8201169050808301925050505050505091929192908035906020019092919080359060200190640100000000811115610cf657600080fd5b820183602082011115610d0857600080fd5b80359060200191846001830284011164010000000083111715610d2a57600080fd5b91908080601f016020809104026020016040519081016040528093929190818152602001838380828437600081840152601f19601f8201169050808301925050505050505091929192908035906020019092919080359060200190929190505050612271565b005b610dc860048036036040811015610da857600080fd5b8101908080359060200190929190803590602001909291905050506124ff565b6040518087815260200180602001866004811115610de257fe5b60ff16815260200180602001856005811115610dfa57fe5b60ff168152602001846005811115610e0e57fe5b60ff168152602001838103835288818151815260200191508051906020019080838360005b83811015610e4e578082015181840152602081019050610e33565b50505050905090810190601f168015610e7b5780820380516001836020036101000a031916815260200191505b50838103825286818151815260200191508051906020019080838360005b83811015610eb4578082015181840152602081019050610e99565b50505050905090810190601f168015610ee15780820380516001836020036101000a031916815260200191505b509850505050505050505060405180910390f35b610efd61276e565b6040518082815260200191505060405180910390f35b610f1b612777565b6040518082815260200191505060405180910390f35b61112260048036036080811015610f4757600080fd5b810190808035906020019092919080359060200190640100000000811115610f6e57600080fd5b820183602082011115610f8057600080fd5b80359060200191846001830284011164010000000083111715610fa257600080fd5b91908080601f016020809104026020016040519081016040528093929190818152602001838380828437600081840152601f19601f8201169050808301925050505050505091929192908035906020019064010000000081111561100557600080fd5b82018360208201111561101757600080fd5b8035906020019184600183028401116401000000008311171561103957600080fd5b91908080601f016020809104026020016040519081016040528093929190818152602001838380828437600081840152601f19601f8201169050808301925050505050505091929192908035906020019064010000000081111561109c57600080fd5b8201836020820111156110ae57600080fd5b803590602001918460018302840111640100000000831117156110d057600080fd5b91908080601f016020809104026020016040519081016040528093929190818152602001838380828437600081840152601f19601f820116905080830192505050505050509192919290505050612781565b005b6111506004803603602081101561113a57600080fd5b810190808035906020019092919050505061293e565b005b61117e6004803603602081101561116857600080fd5b8101908080359060200190929190505050612a9f565b6040518082815260200191505060405180910390f35b61119c612abc565b6040518082815260200191505060405180910390f35b6111ba612ac6565b005b6111e8600480360360208110156111d257600080fd5b8101908080359060200190929190505050612b7a565b6040518082815260200191505060405180910390f35b61122a6004803603602081101561121457600080fd5b8101908080359060200190929190505050612b97565b6040518082815260200191505060405180910390f35b600082118015611251575060005482105b6112c3576040517f08c379a00000000000000000000000000000000000000000000000000000000081526004018080602001828103825260138152602001807f4d697373696f6e20646f6e27742065786973740000000000000000000000000081525060200191505060405180910390fd5b600081101580156112d357508181105b611328576040517f08c379a000000000000000000000000000000000000000000000000000000000815260040180806020018281038252602a815260200180612de2602a913960400191505060405180910390fd5b80600360008481526020019081526020016000208190555061136760016002600085815260200190815260200160002054612bb490919063ffffffff16565b60026000848152602001908152602001600020819055505050565b60006005600087815260200190815260200160002060010160009054906101000a900473ffffffffffffffffffffffffffffffffffffffff1673ffffffffffffffffffffffffffffffffffffffff163373ffffffffffffffffffffffffffffffffffffffff161461143e576040517f08c379a0000000000000000000000000000000000000000000000000000000008152600401808060200182810382526035815260200180612d5a6035913960400191505060405180910390fd5b611446612c3c565b6040518060600160405280868152602001858152602001848152509050600b60008881526020019081526020016000206000878152602001908152602001600020819080600181540180825580915050906001820390600052602060002090600302016000909192909190915060008201518160000190805190602001906114cf929190612c5d565b5060208201518160010190805190602001906114ec929190612c5d565b506040820151816002019080519060200190611509929190612c5d565b505050506000600a6000898152602001908152602001600020600088815260200190815260200160002054905061154a600182612bb490919063ffffffff16565b600a60008a8152602001908152602001600020600089815260200190815260200160002081905550505095945050505050565b6000600a6000848152602001908152602001600020600083815260200190815260200160002054905092915050565b60008060008084600e600087815260200190815260200160002054600f600088815260200190815260200160002054601060008981526020019081526020016000205493509350935093509193509193565b600080826005600085815260200190815260200160002060010160009054906101000a900473ffffffffffffffffffffffffffffffffffffffff1691509150915091565b600060066000838152602001908152602001600020549050919050565b600080600083600d600086815260200190815260200160002060010160009054906101000a900460ff16600d600087815260200190815260200160002060010160019054906101000a900473ffffffffffffffffffffffffffffffffffffffff169250925092509193909250565b60608060606007600086815260200190815260200160002084815481106116f057fe5b906000526020600020906003020160000160076000878152602001908152602001600020858154811061171f57fe5b906000526020600020906003020160010160076000888152602001908152602001600020868154811061174e57fe5b9060005260206000209060030201600201828054600181600116156101000203166002900480601f0160208091040260200160405190810160405280929190818152602001828054600181600116156101000203166002900480156117f45780601f106117c9576101008083540402835291602001916117f4565b820191906000526020600020905b8154815290600101906020018083116117d757829003601f168201915b50505050509250818054600181600116156101000203166002900480601f0160208091040260200160405190810160405280929190818152602001828054600181600116156101000203166002900480156118905780601f1061186557610100808354040283529160200191611890565b820191906000526020600020905b81548152906001019060200180831161187357829003601f168201915b50505050509150808054600181600116156101000203166002900480601f01602080910402602001604051908101604052809291908181526020018280546001816001161561010002031660029004801561192c5780601f106119015761010080835404028352916020019161192c565b820191906000526020600020905b81548152906001019060200180831161190f57829003601f168201915b505050505090509250925092509250925092565b604051806080016040528060005481526020018381526020013373ffffffffffffffffffffffffffffffffffffffff1681526020018281525060016000805481526020019081526020016000206000820151816000015560208201518160010190805190602001906119b3929190612c5d565b5060408201518160020160006101000a81548173ffffffffffffffffffffffffffffffffffffffff021916908373ffffffffffffffffffffffffffffffffffffffff1602179055506060820151816003019080519060200190611a17929190612c5d565b50905050611a316001600054612bb490919063ffffffff16565b6000819055505050565b6060806060600b600087815260200190815260200160002060008681526020019081526020016000208481548110611a6f57fe5b9060005260206000209060030201600001600b600088815260200190815260200160002060008781526020019081526020016000208581548110611aaf57fe5b9060005260206000209060030201600101600b600089815260200190815260200160002060008881526020019081526020016000208681548110611aef57fe5b9060005260206000209060030201600201828054600181600116156101000203166002900480601f016020809104026020016040519081016040528092919081815260200182805460018160011615610100020316600290048015611b955780601f10611b6a57610100808354040283529160200191611b95565b820191906000526020600020905b815481529060010190602001808311611b7857829003601f168201915b50505050509250818054600181600116156101000203166002900480601f016020809104026020016040519081016040528092919081815260200182805460018160011615610100020316600290048015611c315780601f10611c0657610100808354040283529160200191611c31565b820191906000526020600020905b815481529060010190602001808311611c1457829003601f168201915b50505050509150808054600181600116156101000203166002900480601f016020809104026020016040519081016040528092919081815260200182805460018160011615610100020316600290048015611ccd5780601f10611ca257610100808354040283529160200191611ccd565b820191906000526020600020905b815481529060010190602001808311611cb057829003601f168201915b5050505050905092509250925093509350939050565b6060601160009054906101000a900473ffffffffffffffffffffffffffffffffffffffff1673ffffffffffffffffffffffffffffffffffffffff166306fdde036040518163ffffffff1660e01b815260040160006040518083038186803b158015611d4d57600080fd5b505afa158015611d61573d6000803e3d6000fd5b505050506040513d6000823e3d601f19601f820116820180604052506020811015611d8b57600080fd5b8101908080516040519392919084640100000000821115611dab57600080fd5b83820191506020820185811115611dc157600080fd5b8251866001820283011164010000000082111715611dde57600080fd5b8083526020830192505050908051906020019080838360005b83811015611e12578082015181840152602081019050611df7565b50505050905090810190601f168015611e3f5780820380516001836020036101000a031916815260200191505b50604052505050905090565b600060606000606084600160008781526020019081526020016000206001016001600088815260200190815260200160002060020160009054906101000a900473ffffffffffffffffffffffffffffffffffffffff1660016000898152602001908152602001600020600301828054600181600116156101000203166002900480601f016020809104026020016040519081016040528092919081815260200182805460018160011615610100020316600290048015611f4c5780601f10611f2157610100808354040283529160200191611f4c565b820191906000526020600020905b815481529060010190602001808311611f2f57829003601f168201915b50505050509250808054600181600116156101000203166002900480601f016020809104026020016040519081016040528092919081815260200182805460018160011615610100020316600290048015611fe85780601f10611fbd57610100808354040283529160200191611fe8565b820191906000526020600020905b815481529060010190602001808311611fcb57829003601f168201915b5050505050905093509350935093509193509193565b600084101580156120155750612012612777565b84105b612087576040517f08c379a00000000000000000000000000000000000000000000000000000000081526004018080602001828103825260128152602001807f537461746520646f6e277420657869737473000000000000000000000000000081525060200191505060405180910390fd5b6000831015801561209e575061209b61276e565b83105b612110576040517f08c379a00000000000000000000000000000000000000000000000000000000081526004018080602001828103825260138152602001807f4d697373696f6e20646f6e27742065786973740000000000000000000000000081525060200191505060405180910390fd5b600082101580156121275750612124612abc565b82105b612199576040517f08c379a00000000000000000000000000000000000000000000000000000000081526004018080602001828103825260178152602001807f436f6e7374697475656e7420646f6e277420657869737400000000000000000081525060200191505060405180910390fd5b600081101580156121b157506121ae82612b7a565b81105b612223576040517f08c379a00000000000000000000000000000000000000000000000000000000081526004018080602001828103825260138152602001807f5365727669636520646f6e27742065786973740000000000000000000000000081525060200191505060405180910390fd5b82600e60008681526020019081526020016000208190555081600f60008681526020019081526020016000208190555080601060008681526020019081526020016000208190555050505050565b6005600087815260200190815260200160002060010160009054906101000a900473ffffffffffffffffffffffffffffffffffffffff1673ffffffffffffffffffffffffffffffffffffffff163373ffffffffffffffffffffffffffffffffffffffff161461232b576040517f08c379a0000000000000000000000000000000000000000000000000000000008152600401808060200182810382526027815260200180612e0c6027913960400191505060405180910390fd5b612333612cdd565b6040518060c00160405280600860008a815260200190815260200160002054815260200187815260200186600481111561236957fe5b600481111561237457fe5b815260200185815260200184600581111561238b57fe5b600581111561239657fe5b81526020018360058111156123a757fe5b60058111156123b257fe5b815250905060096000888152602001908152602001600020819080600181540180825580915050906001820390600052602060002090600502016000909192909190915060008201518160000155602082015181600101908051906020019061241c929190612c5d565b5060408201518160020160006101000a81548160ff0219169083600481111561244157fe5b02179055506060820151816003019080519060200190612462929190612c5d565b5060808201518160040160006101000a81548160ff0219169083600581111561248757fe5b021790555060a08201518160040160016101000a81548160ff021916908360058111156124b057fe5b02179055505050506124df6001600860008a815260200190815260200160002054612bb490919063ffffffff16565b600860008981526020019081526020016000208190555050505050505050565b600060606000606060008086600960008a8152602001908152602001600020888154811061252957fe5b9060005260206000209060050201600101600960008b8152602001908152602001600020898154811061255857fe5b906000526020600020906005020160020160009054906101000a900460ff16600960008c81526020019081526020016000208a8154811061259557fe5b9060005260206000209060050201600301600960008d81526020019081526020016000208b815481106125c457fe5b906000526020600020906005020160040160009054906101000a900460ff16600960008e81526020019081526020016000208c8154811061260157fe5b906000526020600020906005020160040160019054906101000a900460ff16848054600181600116156101000203166002900480601f0160208091040260200160405190810160405280929190818152602001828054600181600116156101000203166002900480156126b55780601f1061268a576101008083540402835291602001916126b5565b820191906000526020600020905b81548152906001019060200180831161269857829003601f168201915b50505050509450828054600181600116156101000203166002900480601f0160208091040260200160405190810160405280929190818152602001828054600181600116156101000203166002900480156127515780601f1061272657610100808354040283529160200191612751565b820191906000526020600020905b81548152906001019060200180831161273457829003601f168201915b505050505092509550955095509550955095509295509295509295565b60008054905090565b6000600c54905090565b6005600085815260200190815260200160002060010160009054906101000a900473ffffffffffffffffffffffffffffffffffffffff1673ffffffffffffffffffffffffffffffffffffffff163373ffffffffffffffffffffffffffffffffffffffff161461283b576040517f08c379a0000000000000000000000000000000000000000000000000000000008152600401808060200182810382526029815260200180612db96029913960400191505060405180910390fd5b612843612c3c565b604051806060016040528085815260200184815260200183815250905060076000868152602001908152602001600020819080600181540180825580915050906001820390600052602060002090600302016000909192909190915060008201518160000190805190602001906128bb929190612c5d565b5060208201518160010190805190602001906128d8929190612c5d565b5060408201518160020190805190602001906128f5929190612c5d565b5050505061292060016006600088815260200190815260200160002054612bb490919063ffffffff16565b60066000878152602001908152602001600020819055505050505050565b60008110158015612950575060028111155b6129a5576040517f08c379a000000000000000000000000000000000000000000000000000000000815260040180806020018281038252602a815260200180612d8f602a913960400191505060405180910390fd5b6040518060600160405280600c5481526020018260028111156129c457fe5b60028111156129cf57fe5b81526020013373ffffffffffffffffffffffffffffffffffffffff16815250600d6000600c5481526020019081526020016000206000820151816000015560208201518160010160006101000a81548160ff02191690836002811115612a3157fe5b021790555060408201518160010160016101000a81548173ffffffffffffffffffffffffffffffffffffffff021916908373ffffffffffffffffffffffffffffffffffffffff160217905550905050612a966001600c54612bb490919063ffffffff16565b600c8190555050565b600060036000838152602001908152602001600020549050919050565b6000600454905090565b604051806040016040528060045481526020013373ffffffffffffffffffffffffffffffffffffffff168152506005600060045481526020019081526020016000206000820151816000015560208201518160010160006101000a81548173ffffffffffffffffffffffffffffffffffffffff021916908373ffffffffffffffffffffffffffffffffffffffff160217905550905050612b726001600454612bb490919063ffffffff16565b600481905550565b600060086000838152602001908152602001600020549050919050565b600060026000838152602001908152602001600020549050919050565b600080828401905083811015612c32576040517f08c379a000000000000000000000000000000000000000000000000000000000815260040180806020018281038252601b8152602001807f536166654d6174683a206164646974696f6e206f766572666c6f77000000000081525060200191505060405180910390fd5b8091505092915050565b60405180606001604052806060815260200160608152602001606081525090565b828054600181600116156101000203166002900490600052602060002090601f016020900481019282601f10612c9e57805160ff1916838001178555612ccc565b82800160010185558215612ccc579182015b82811115612ccb578251825591602001919060010190612cb0565b5b509050612cd99190612d34565b5090565b6040518060c00160405280600081526020016060815260200160006004811115612d0357fe5b81526020016060815260200160006005811115612d1c57fe5b815260200160006005811115612d2e57fe5b81525090565b612d5691905b80821115612d52576000816000905550600101612d3a565b5090565b9056fe4f6e6c7920436f6e7374697475656e74206f776e65722063616e2061646420706172616d657465727320746f20736572766963657343414e4449444154453a20302c20415641494c41424c453a20312c20554e415641494c41424c453a20324f6e6c7920436f6e7374697475656e74206f776e65722063616e2061646420706172616d657465727353757065724d697373696f6e20697320657175616c206f72206d6f7265207468616e206d697373696f6e4f6e6c7920436f6e7374697475656e74206f776e65722063616e20616464207365727669636573a265627a7a72315820e45b45e4b3cfed14d9c1017efc8e1f259c33c4323994729996f0357dcd7962e364736f6c63430005100032",
  "source": "pragma solidity  >=0.5.16 <0.7.0;\r\n\r\nimport \"../node_modules/openzeppelin-solidity/contracts/math/SafeMath.sol\";\r\nimport \"./ConfidenceToken.sol\";\r\n\r\n\r\ncontract MissionsSoSService{\r\n\r\n    using SafeMath for uint;\r\n\r\n    enum HTTPMethod  {GET, POST, PATCH, PUT, DELETE}\r\n    enum ContentType {none, data, URL_encoded, raw, binary, GraphQL}\r\n    enum RAWDataType {none, Text, JavaScript, JSON, HTML, XML}\r\n    enum EnumState {CANDIDATE, AVAILABLE, UNAVAILABLE}\r\n\r\n   struct Mission {\r\n        uint missionCode;\r\n        string missionDescription;\r\n        address missionOwner;\r\n        string missionTag;\r\n    }\r\n\r\n    struct Parameter {\r\n        string parameterKey;\r\n        string parameterValue;\r\n        string parameterDescription;\r\n    }\r\n\r\n    struct Constituent {\r\n        uint constituentCode;\r\n        address constituentOwner;\r\n    }\r\n\r\n    struct Service {\r\n        uint serviceCode;\r\n        string serviceDescription;\r\n        HTTPMethod serviceHTTPMethod;\r\n        string serviceURL;\r\n        ContentType serviceContentType;\r\n        RAWDataType serviceRAWDataType;\r\n    }\r\n\r\n    struct State {\r\n        uint stateCode;\r\n        EnumState stateState;\r\n        address stateOwner;\r\n    }\r\n\r\n\r\n    //--------Mission---------\r\n    uint private _totalMission;\r\n    mapping(uint => Mission) private missionMap;\r\n\r\n    //-------Mission SuperMission-------\r\n    mapping(uint => uint) private _totalMissionSuperMission;\r\n    mapping(uint => uint) private missionSuperMissionMap;\r\n\r\n    //-------Constituent-------\r\n    uint private _totalConstituent;\r\n    mapping(uint => Constituent) private constituentMap;\r\n    //--Constituent Parameter--\r\n    mapping(uint => uint) private _totalConstituentParameter;\r\n    mapping(uint => Parameter[]) private constituentParameterMap;\r\n    //---Constituent Service---\r\n    mapping(uint => uint) private _totalConstituentService;\r\n    mapping(uint => Service[]) private constituentServiceMap;\r\n\r\n    //-------Constituent Service Parameter-------\r\n    mapping(uint => mapping(uint => uint)) private _totalConstituentServiceParameter;\r\n    mapping(uint => mapping(uint => Parameter[])) private constituentServiceParameterMap;\r\n\r\n    //-------State-------\r\n    uint private _totalState;\r\n    mapping(uint => State) private stateMap;\r\n\r\n    //-------State Mission ---------\r\n    mapping(uint => uint) private stateMissionMap;\r\n\r\n    //-------State Constituent ---------\r\n    mapping(uint => uint) private stateConstituentMap;\r\n\r\n    //-------State Service ---------\r\n    mapping(uint => uint) private stateServiceMap;\r\n\r\n\r\n    //-------------Token-------------\r\n    ConfidenceToken private confidenceToken;\r\n\r\n    function confidenceTokenName() public view returns (string memory) {\r\n        return confidenceToken.name();\r\n    }\r\n\r\n    //--------Constructor---------\r\n\r\n    constructor() public{\r\n        confidenceToken = ConfidenceToken(0x99E9Af23C8982302DF19c652E6569E12E7F172d2);\r\n    }\r\n\r\n\r\n    //--------Mission---------\r\n\r\n\r\n    function totalMission() public view returns (uint) {\r\n        return _totalMission;\r\n    }\r\n\r\n    function setMission(string memory _missionDescription, string memory _missionTag) public {\r\n        missionMap[_totalMission] = Mission(_totalMission, _missionDescription, msg.sender, _missionTag);\r\n        _totalMission = _totalMission.add(1);\r\n    }\r\n\r\n    function mission(uint  _missionCode) public view returns (uint, string memory, address, string memory) {\r\n        return (_missionCode,\r\n            missionMap[_missionCode].missionDescription,\r\n            missionMap[_missionCode].missionOwner,\r\n            missionMap[_missionCode].missionTag\r\n        );\r\n    }\r\n\r\n    //-----------Mission SuperMission -----------\r\n    function totalMissionSuperMission(uint _missionCode) public view returns (uint) {\r\n        return _totalMissionSuperMission[_missionCode];\r\n    }\r\n\r\n    function setMissionSuperMission(uint _missionCode, uint _superMissionCode) public {\r\n        require(_missionCode>0&&_missionCode<_totalMission,\"Mission don't exist\");\r\n        require(_superMissionCode>=0&&_superMissionCode<_missionCode,\"SuperMission is equal or more than mission\");\r\n        missionSuperMissionMap[_missionCode] = _superMissionCode;\r\n        _totalMissionSuperMission[_missionCode] = _totalMissionSuperMission[_missionCode].add(1);\r\n    }\r\n\r\n    function missionSuperMission(uint  _missionCode) public view returns (uint) {\r\n        return (missionSuperMissionMap[_missionCode]);\r\n    }\r\n\r\n    //-------Constituent-------\r\n\r\n    function totalConstituent() public view returns (uint) {\r\n        return _totalConstituent;\r\n    }\r\n\r\n    function setConstituent() public {\r\n        constituentMap[_totalConstituent] = Constituent(_totalConstituent, msg.sender);\r\n        _totalConstituent = _totalConstituent.add(1);\r\n    }\r\n\r\n    function constituent(uint  _constituentCode) public view returns (uint, address) {\r\n        return (_constituentCode, constituentMap[_constituentCode].constituentOwner);\r\n    }\r\n\r\n    //--Constituent Parameter--\r\n\r\n    function setConstituentParameter(uint  _constituentCode,\r\n    string memory _parameterKey,string memory _parameterValue,\r\n    string memory _parameterDescription) public {\r\n        require(msg.sender==constituentMap[_constituentCode].constituentOwner,\"Only Constituent owner can add parameters\");\r\n        Parameter memory _parameter = Parameter(_parameterKey,\r\n        _parameterValue, _parameterDescription);\r\n        constituentParameterMap[_constituentCode].push(_parameter);\r\n        _totalConstituentParameter[_constituentCode] = _totalConstituentParameter[_constituentCode].add(1);\r\n\r\n    }\r\n\r\n    function totalConstituentParameter(uint _constituentCode) public view returns (uint) {\r\n        return _totalConstituentParameter[_constituentCode];\r\n    }\r\n\r\n    function constituentParameter(uint  _constituentCode,\r\n    uint _parameterCode) public view returns (string memory, string memory, string memory) {\r\n        return (constituentParameterMap[_constituentCode][_parameterCode].parameterKey,\r\n            constituentParameterMap[_constituentCode][_parameterCode].parameterValue,\r\n            constituentParameterMap[_constituentCode][_parameterCode].parameterDescription\r\n        );\r\n    }\r\n\r\n    //--Constituent Service----\r\n\r\n    function setConstituentService(uint  _constituentCode,\r\n    string memory _serviceDescription,uint _serviceHTTPMethod,\r\n    string memory serviceURL, uint _serviceContentType,\r\n    uint _serviceRAWDataType) public {\r\n        require(msg.sender==constituentMap[_constituentCode].constituentOwner,\"Only Constituent owner can add services\");\r\n        Service memory _service = Service(_totalConstituentService[_constituentCode],\r\n        _serviceDescription, HTTPMethod(_serviceHTTPMethod),serviceURL,\r\n        ContentType(_serviceContentType),RAWDataType(_serviceRAWDataType));\r\n        constituentServiceMap[_constituentCode].push(_service);\r\n        _totalConstituentService[_constituentCode] = _totalConstituentService[_constituentCode].add(1);\r\n    }\r\n\r\n    function totalConstituentService(uint _constituentCode) public view returns (uint) {\r\n        return _totalConstituentService[_constituentCode];\r\n    }\r\n\r\n    function constituentService(uint  _constituentCode,uint _serviceCode)\r\n    public view returns (uint, string memory, HTTPMethod,string memory,ContentType,RAWDataType) {\r\n        return (_serviceCode,\r\n            constituentServiceMap[_constituentCode][_serviceCode].serviceDescription,\r\n            constituentServiceMap[_constituentCode][_serviceCode].serviceHTTPMethod,\r\n            constituentServiceMap[_constituentCode][_serviceCode].serviceURL,\r\n            constituentServiceMap[_constituentCode][_serviceCode].serviceContentType,\r\n            constituentServiceMap[_constituentCode][_serviceCode].serviceRAWDataType\r\n        );\r\n    }\r\n\r\n    //--Constituent Service Parameter--\r\n\r\n    function setConstituentServiceParameter(uint  _constituentCode,uint  _serviceCode,\r\n    string memory _parameterKey,string memory _parameterValue,\r\n    string memory _parameterDescription) public returns (bool) {\r\n        require(msg.sender==constituentMap[_constituentCode].constituentOwner,\"Only Constituent owner can add parameters to services\");\r\n        Parameter memory _parameter = Parameter(_parameterKey, _parameterValue,_parameterDescription);\r\n        constituentServiceParameterMap[_constituentCode][_serviceCode].push(_parameter);\r\n        uint auxTotal = _totalConstituentServiceParameter[_constituentCode][_serviceCode];\r\n        _totalConstituentServiceParameter[_constituentCode][_serviceCode] = auxTotal.add(1);\r\n    }\r\n\r\n    function totalConstituentServiceParameter(uint _constituentCode,\r\n    uint _serviceCode) public view returns (uint) {\r\n        return _totalConstituentServiceParameter[_constituentCode][_serviceCode];\r\n    }\r\n\r\n    function constituentServiceParameter(uint  _constituentCode,\r\n    uint _serviceCode, uint _parameterCode)\r\n    public view returns (string memory, string memory, string memory) {\r\n        return (\r\n            (constituentServiceParameterMap[_constituentCode][_serviceCode])[_parameterCode].parameterKey,\r\n            (constituentServiceParameterMap[_constituentCode][_serviceCode])[_parameterCode].parameterValue,\r\n            (constituentServiceParameterMap[_constituentCode][_serviceCode])[_parameterCode].parameterDescription\r\n        );\r\n    }\r\n\r\n    //-----------State  -----------\r\n\r\n    function totalState() public view returns (uint) {\r\n        return _totalState;\r\n    }\r\n\r\n    function setState(uint _stateState) public {\r\n        require(_stateState>=0&&_stateState<=2,\"CANDIDATE: 0, AVAILABLE: 1, UNAVAILABLE: 2\");\r\n        stateMap[_totalState] = State(_totalState, EnumState(_stateState), msg.sender);\r\n        _totalState = _totalState.add(1);\r\n    }\r\n\r\n    function state(uint  _stateCode) public view returns (uint, EnumState, address) {\r\n        return (_stateCode,\r\n            stateMap[_stateCode].stateState,\r\n            stateMap[_stateCode].stateOwner\r\n        );\r\n    }\r\n\r\n    //-----------State Mission Constituent Service -----------\r\n\r\n    function setStateMissionConstituentService(uint _stateCode,uint _missionCode,\r\n    uint _constituentCode, uint _serviceCode) public {\r\n        require(_stateCode>=0 && _stateCode<totalState(),\"State don't exists\");\r\n        require(_missionCode>=0 && _missionCode<totalMission(),\"Mission don't exist\");\r\n        require(_constituentCode>=0 && _constituentCode<totalConstituent(),\"Constituent don't exist\");\r\n        require(_serviceCode>=0 && _serviceCode<totalConstituentService(_constituentCode),\"Service don't exist\");\r\n        stateMissionMap[_stateCode] = _missionCode;\r\n        stateConstituentMap[_stateCode] = _constituentCode;\r\n        stateServiceMap[_stateCode] = _serviceCode;\r\n    }\r\n\r\n    function stateMissionConstituentService(uint _stateCode)\r\n    public view returns (uint, uint, uint, uint){\r\n        return (\r\n            _stateCode,\r\n            stateMissionMap[_stateCode],\r\n            stateConstituentMap[_stateCode],\r\n            stateServiceMap[_stateCode]\r\n        );\r\n    }\r\n\r\n}",
  "sourcePath": "D:\\pruebas\\zeppelinConfidenceToken\\contracts\\MissionsSoSService.sol",
  "compiler": {
    "name": "solc",
    "version": "0.5.16+commit.9c3226ce.Emscripten.clang"
  },
  "schemaVersion": "3.0.23",
  "updatedAt": "2020-02-29T18:53:01.326Z",
  "networkType": "ethereum",
  "devdoc": {
    "methods": {}
  },
  "userdoc": {
    "methods": {}
  }
}