{
  "contractName": "MissionsSoSService",
  "abi": [
    {
      "constant": true,
      "inputs": [],
      "name": "totalMission",
      "outputs": [
        {
          "internalType": "uint256",
          "name": "",
          "type": "uint256"
        }
      ],
      "payable": false,
      "stateMutability": "view",
      "type": "function"
    },
    {
      "constant": false,
      "inputs": [
        {
          "internalType": "string",
          "name": "_missionDescription",
          "type": "string"
        },
        {
          "internalType": "string",
          "name": "_missionTag",
          "type": "string"
        }
      ],
      "name": "setMission",
      "outputs": [],
      "payable": false,
      "stateMutability": "nonpayable",
      "type": "function"
    },
    {
      "constant": true,
      "inputs": [
        {
          "internalType": "uint256",
          "name": "_missionCode",
          "type": "uint256"
        }
      ],
      "name": "mission",
      "outputs": [
        {
          "internalType": "uint256",
          "name": "",
          "type": "uint256"
        },
        {
          "internalType": "string",
          "name": "",
          "type": "string"
        },
        {
          "internalType": "address",
          "name": "",
          "type": "address"
        },
        {
          "internalType": "string",
          "name": "",
          "type": "string"
        }
      ],
      "payable": false,
      "stateMutability": "view",
      "type": "function"
    },
    {
      "constant": true,
      "inputs": [
        {
          "internalType": "uint256",
          "name": "_missionCode",
          "type": "uint256"
        }
      ],
      "name": "totalMissionSuperMission",
      "outputs": [
        {
          "internalType": "uint256",
          "name": "",
          "type": "uint256"
        }
      ],
      "payable": false,
      "stateMutability": "view",
      "type": "function"
    },
    {
      "constant": false,
      "inputs": [
        {
          "internalType": "uint256",
          "name": "_missionCode",
          "type": "uint256"
        },
        {
          "internalType": "uint256",
          "name": "_superMissionCode",
          "type": "uint256"
        }
      ],
      "name": "setMissionSuperMission",
      "outputs": [],
      "payable": false,
      "stateMutability": "nonpayable",
      "type": "function"
    },
    {
      "constant": true,
      "inputs": [
        {
          "internalType": "uint256",
          "name": "_missionCode",
          "type": "uint256"
        }
      ],
      "name": "missionSuperMission",
      "outputs": [
        {
          "internalType": "uint256",
          "name": "",
          "type": "uint256"
        }
      ],
      "payable": false,
      "stateMutability": "view",
      "type": "function"
    },
    {
      "constant": true,
      "inputs": [],
      "name": "totalConstituent",
      "outputs": [
        {
          "internalType": "uint256",
          "name": "",
          "type": "uint256"
        }
      ],
      "payable": false,
      "stateMutability": "view",
      "type": "function"
    },
    {
      "constant": false,
      "inputs": [],
      "name": "setConstituent",
      "outputs": [],
      "payable": false,
      "stateMutability": "nonpayable",
      "type": "function"
    },
    {
      "constant": true,
      "inputs": [
        {
          "internalType": "uint256",
          "name": "_constituentCode",
          "type": "uint256"
        }
      ],
      "name": "constituent",
      "outputs": [
        {
          "internalType": "uint256",
          "name": "",
          "type": "uint256"
        },
        {
          "internalType": "address",
          "name": "",
          "type": "address"
        }
      ],
      "payable": false,
      "stateMutability": "view",
      "type": "function"
    },
    {
      "constant": false,
      "inputs": [
        {
          "internalType": "uint256",
          "name": "_constituentCode",
          "type": "uint256"
        },
        {
          "internalType": "string",
          "name": "_parameterKey",
          "type": "string"
        },
        {
          "internalType": "string",
          "name": "_parameterValue",
          "type": "string"
        },
        {
          "internalType": "string",
          "name": "_parameterDescription",
          "type": "string"
        }
      ],
      "name": "setConstituentParameter",
      "outputs": [],
      "payable": false,
      "stateMutability": "nonpayable",
      "type": "function"
    },
    {
      "constant": true,
      "inputs": [
        {
          "internalType": "uint256",
          "name": "_constituentCode",
          "type": "uint256"
        }
      ],
      "name": "totalConstituentParameter",
      "outputs": [
        {
          "internalType": "uint256",
          "name": "",
          "type": "uint256"
        }
      ],
      "payable": false,
      "stateMutability": "view",
      "type": "function"
    },
    {
      "constant": true,
      "inputs": [
        {
          "internalType": "uint256",
          "name": "_constituentCode",
          "type": "uint256"
        },
        {
          "internalType": "uint256",
          "name": "_parameterCode",
          "type": "uint256"
        }
      ],
      "name": "constituentParameter",
      "outputs": [
        {
          "internalType": "string",
          "name": "",
          "type": "string"
        },
        {
          "internalType": "string",
          "name": "",
          "type": "string"
        },
        {
          "internalType": "string",
          "name": "",
          "type": "string"
        }
      ],
      "payable": false,
      "stateMutability": "view",
      "type": "function"
    },
    {
      "constant": false,
      "inputs": [
        {
          "internalType": "uint256",
          "name": "_constituentCode",
          "type": "uint256"
        },
        {
          "internalType": "string",
          "name": "_serviceDescription",
          "type": "string"
        },
        {
          "internalType": "uint256",
          "name": "_serviceHTTPMethod",
          "type": "uint256"
        },
        {
          "internalType": "string",
          "name": "serviceURL",
          "type": "string"
        },
        {
          "internalType": "uint256",
          "name": "_serviceContentType",
          "type": "uint256"
        },
        {
          "internalType": "uint256",
          "name": "_serviceRAWDataType",
          "type": "uint256"
        }
      ],
      "name": "setConstituentService",
      "outputs": [],
      "payable": false,
      "stateMutability": "nonpayable",
      "type": "function"
    },
    {
      "constant": true,
      "inputs": [
        {
          "internalType": "uint256",
          "name": "_constituentCode",
          "type": "uint256"
        }
      ],
      "name": "totalConstituentService",
      "outputs": [
        {
          "internalType": "uint256",
          "name": "",
          "type": "uint256"
        }
      ],
      "payable": false,
      "stateMutability": "view",
      "type": "function"
    },
    {
      "constant": true,
      "inputs": [
        {
          "internalType": "uint256",
          "name": "_constituentCode",
          "type": "uint256"
        },
        {
          "internalType": "uint256",
          "name": "_serviceCode",
          "type": "uint256"
        }
      ],
      "name": "constituentService",
      "outputs": [
        {
          "internalType": "uint256",
          "name": "",
          "type": "uint256"
        },
        {
          "internalType": "string",
          "name": "",
          "type": "string"
        },
        {
          "internalType": "enum MissionsSoSService.HTTPMethod",
          "name": "",
          "type": "uint8"
        },
        {
          "internalType": "string",
          "name": "",
          "type": "string"
        },
        {
          "internalType": "enum MissionsSoSService.ContentType",
          "name": "",
          "type": "uint8"
        },
        {
          "internalType": "enum MissionsSoSService.RAWDataType",
          "name": "",
          "type": "uint8"
        }
      ],
      "payable": false,
      "stateMutability": "view",
      "type": "function"
    },
    {
      "constant": false,
      "inputs": [
        {
          "internalType": "uint256",
          "name": "_constituentCode",
          "type": "uint256"
        },
        {
          "internalType": "uint256",
          "name": "_serviceCode",
          "type": "uint256"
        },
        {
          "internalType": "string",
          "name": "_parameterKey",
          "type": "string"
        },
        {
          "internalType": "string",
          "name": "_parameterValue",
          "type": "string"
        },
        {
          "internalType": "string",
          "name": "_parameterDescription",
          "type": "string"
        }
      ],
      "name": "setConstituentServiceParameter",
      "outputs": [
        {
          "internalType": "bool",
          "name": "",
          "type": "bool"
        }
      ],
      "payable": false,
      "stateMutability": "nonpayable",
      "type": "function"
    },
    {
      "constant": true,
      "inputs": [
        {
          "internalType": "uint256",
          "name": "_constituentCode",
          "type": "uint256"
        },
        {
          "internalType": "uint256",
          "name": "_serviceCode",
          "type": "uint256"
        }
      ],
      "name": "totalConstituentServiceParameter",
      "outputs": [
        {
          "internalType": "uint256",
          "name": "",
          "type": "uint256"
        }
      ],
      "payable": false,
      "stateMutability": "view",
      "type": "function"
    },
    {
      "constant": true,
      "inputs": [
        {
          "internalType": "uint256",
          "name": "_constituentCode",
          "type": "uint256"
        },
        {
          "internalType": "uint256",
          "name": "_serviceCode",
          "type": "uint256"
        },
        {
          "internalType": "uint256",
          "name": "_parameterCode",
          "type": "uint256"
        }
      ],
      "name": "constituentServiceParameter",
      "outputs": [
        {
          "internalType": "string",
          "name": "",
          "type": "string"
        },
        {
          "internalType": "string",
          "name": "",
          "type": "string"
        },
        {
          "internalType": "string",
          "name": "",
          "type": "string"
        }
      ],
      "payable": false,
      "stateMutability": "view",
      "type": "function"
    },
    {
      "constant": true,
      "inputs": [],
      "name": "totalState",
      "outputs": [
        {
          "internalType": "uint256",
          "name": "",
          "type": "uint256"
        }
      ],
      "payable": false,
      "stateMutability": "view",
      "type": "function"
    },
    {
      "constant": false,
      "inputs": [
        {
          "internalType": "uint256",
          "name": "_stateState",
          "type": "uint256"
        }
      ],
      "name": "setState",
      "outputs": [],
      "payable": false,
      "stateMutability": "nonpayable",
      "type": "function"
    },
    {
      "constant": true,
      "inputs": [
        {
          "internalType": "uint256",
          "name": "_stateCode",
          "type": "uint256"
        }
      ],
      "name": "state",
      "outputs": [
        {
          "internalType": "uint256",
          "name": "",
          "type": "uint256"
        },
        {
          "internalType": "enum MissionsSoSService.EnumState",
          "name": "",
          "type": "uint8"
        },
        {
          "internalType": "address",
          "name": "",
          "type": "address"
        }
      ],
      "payable": false,
      "stateMutability": "view",
      "type": "function"
    },
    {
      "constant": false,
      "inputs": [
        {
          "internalType": "uint256",
          "name": "_stateCode",
          "type": "uint256"
        },
        {
          "internalType": "uint256",
          "name": "_missionCode",
          "type": "uint256"
        },
        {
          "internalType": "uint256",
          "name": "_constituentCode",
          "type": "uint256"
        },
        {
          "internalType": "uint256",
          "name": "_serviceCode",
          "type": "uint256"
        }
      ],
      "name": "setStateMissionConstituentService",
      "outputs": [],
      "payable": false,
      "stateMutability": "nonpayable",
      "type": "function"
    },
    {
      "constant": true,
      "inputs": [
        {
          "internalType": "uint256",
          "name": "_stateCode",
          "type": "uint256"
        }
      ],
      "name": "stateMissionConstituentService",
      "outputs": [
        {
          "internalType": "uint256",
          "name": "",
          "type": "uint256"
        },
        {
          "internalType": "uint256",
          "name": "",
          "type": "uint256"
        },
        {
          "internalType": "uint256",
          "name": "",
          "type": "uint256"
        },
        {
          "internalType": "uint256",
          "name": "",
          "type": "uint256"
        }
      ],
      "payable": false,
      "stateMutability": "view",
      "type": "function"
    }
  ],
  "bytecode": "0x608060405234801561001057600080fd5b50612c71806100206000396000f3fe608060405234801561001057600080fd5b506004361061014d5760003560e01c80637fea59b5116100c3578063a9e966b71161007c578063a9e966b714611096578063b994b8b4146110c4578063bb286a8514611106578063d23ef6a214611124578063d970ab291461112e578063fd3ac2a6146111705761014d565b80637fea59b514610b3e57806395242d2a14610b8a578063954b26cb14610d045780639da1e84d14610e675780639f58a56114610e85578063a11e052f14610ea35761014d565b80632f4a5cf3116101155780632f4a5cf3146104b75780633e4f49e6146104f957806344263b221461058357806347edfeee1461070c5780634c1496461461085e57806379f5b9e5146109f15761014d565b80630b5261ef146101525780632b39d5c71461018a5780632b3f2bfb1461039f5780632c577a38146103eb5780632e6d88c914610442575b600080fd5b6101886004803603604081101561016857600080fd5b8101908080359060200190929190803590602001909291905050506111b2565b005b610385600480360360a08110156101a057600080fd5b810190808035906020019092919080359060200190929190803590602001906401000000008111156101d157600080fd5b8201836020820111156101e357600080fd5b8035906020019184600183028401116401000000008311171561020557600080fd5b91908080601f016020809104026020016040519081016040528093929190818152602001838380828437600081840152601f19601f8201169050808301925050505050505091929192908035906020019064010000000081111561026857600080fd5b82018360208201111561027a57600080fd5b8035906020019184600183028401116401000000008311171561029c57600080fd5b91908080601f016020809104026020016040519081016040528093929190818152602001838380828437600081840152601f19601f820116905080830192505050505050509192919290803590602001906401000000008111156102ff57600080fd5b82018360208201111561031157600080fd5b8035906020019184600183028401116401000000008311171561033357600080fd5b91908080601f016020809104026020016040519081016040528093929190818152602001838380828437600081840152601f19601f8201169050808301925050505050505091929192905050506112f4565b604051808215151515815260200191505060405180910390f35b6103d5600480360360408110156103b557600080fd5b8101908080359060200190929190803590602001909291905050506114ef565b6040518082815260200191505060405180910390f35b6104176004803603602081101561040157600080fd5b810190808035906020019092919050505061151e565b6040518085815260200184815260200183815260200182815260200194505050505060405180910390f35b61046e6004803603602081101561045857600080fd5b8101908080359060200190929190505050611570565b604051808381526020018273ffffffffffffffffffffffffffffffffffffffff1673ffffffffffffffffffffffffffffffffffffffff1681526020019250505060405180910390f35b6104e3600480360360208110156104cd57600080fd5b81019080803590602001909291905050506115b4565b6040518082815260200191505060405180910390f35b6105256004803603602081101561050f57600080fd5b81019080803590602001909291905050506115d1565b6040518084815260200183600281111561053b57fe5b60ff1681526020018273ffffffffffffffffffffffffffffffffffffffff1673ffffffffffffffffffffffffffffffffffffffff168152602001935050505060405180910390f35b6105b96004803603604081101561059957600080fd5b81019080803590602001909291908035906020019092919050505061163f565b60405180806020018060200180602001848103845287818151815260200191508051906020019080838360005b838110156106015780820151818401526020810190506105e6565b50505050905090810190601f16801561062e5780820380516001836020036101000a031916815260200191505b50848103835286818151815260200191508051906020019080838360005b8381101561066757808201518184015260208101905061064c565b50505050905090810190601f1680156106945780820380516001836020036101000a031916815260200191505b50848103825285818151815260200191508051906020019080838360005b838110156106cd5780820151818401526020810190506106b2565b50505050905090810190601f1680156106fa5780820380516001836020036101000a031916815260200191505b50965050505050505060405180910390f35b61085c6004803603604081101561072257600080fd5b810190808035906020019064010000000081111561073f57600080fd5b82018360208201111561075157600080fd5b8035906020019184600183028401116401000000008311171561077357600080fd5b91908080601f016020809104026020016040519081016040528093929190818152602001838380828437600081840152601f19601f820116905080830192505050505050509192919290803590602001906401000000008111156107d657600080fd5b8201836020820111156107e857600080fd5b8035906020019184600183028401116401000000008311171561080a57600080fd5b91908080601f016020809104026020016040519081016040528093929190818152602001838380828437600081840152601f19601f8201169050808301925050505050505091929192905050506118b2565b005b61089e6004803603606081101561087457600080fd5b810190808035906020019092919080359060200190929190803590602001909291905050506119ad565b60405180806020018060200180602001848103845287818151815260200191508051906020019080838360005b838110156108e65780820151818401526020810190506108cb565b50505050905090810190601f1680156109135780820380516001836020036101000a031916815260200191505b50848103835286818151815260200191508051906020019080838360005b8381101561094c578082015181840152602081019050610931565b50505050905090810190601f1680156109795780820380516001836020036101000a031916815260200191505b50848103825285818151815260200191508051906020019080838360005b838110156109b2578082015181840152602081019050610997565b50505050905090810190601f1680156109df5780820380516001836020036101000a031916815260200191505b50965050505050505060405180910390f35b610a1d60048036036020811015610a0757600080fd5b8101908080359060200190929190505050611c55565b60405180858152602001806020018473ffffffffffffffffffffffffffffffffffffffff1673ffffffffffffffffffffffffffffffffffffffff16815260200180602001838103835286818151815260200191508051906020019080838360005b83811015610a99578082015181840152602081019050610a7e565b50505050905090810190601f168015610ac65780820380516001836020036101000a031916815260200191505b50838103825284818151815260200191508051906020019080838360005b83811015610aff578082015181840152602081019050610ae4565b50505050905090810190601f168015610b2c5780820380516001836020036101000a031916815260200191505b50965050505050505060405180910390f35b610b8860048036036080811015610b5457600080fd5b8101908080359060200190929190803590602001909291908035906020019092919080359060200190929190505050611e08565b005b610d02600480360360c0811015610ba057600080fd5b810190808035906020019092919080359060200190640100000000811115610bc757600080fd5b820183602082011115610bd957600080fd5b80359060200191846001830284011164010000000083111715610bfb57600080fd5b91908080601f016020809104026020016040519081016040528093929190818152602001838380828437600081840152601f19601f8201169050808301925050505050505091929192908035906020019092919080359060200190640100000000811115610c6857600080fd5b820183602082011115610c7a57600080fd5b80359060200191846001830284011164010000000083111715610c9c57600080fd5b91908080601f016020809104026020016040519081016040528093929190818152602001838380828437600081840152601f19601f820116905080830192505050505050509192919290803590602001909291908035906020019092919050505061207b565b005b610d3a60048036036040811015610d1a57600080fd5b810190808035906020019092919080359060200190929190505050612309565b6040518087815260200180602001866004811115610d5457fe5b60ff16815260200180602001856005811115610d6c57fe5b60ff168152602001846005811115610d8057fe5b60ff168152602001838103835288818151815260200191508051906020019080838360005b83811015610dc0578082015181840152602081019050610da5565b50505050905090810190601f168015610ded5780820380516001836020036101000a031916815260200191505b50838103825286818151815260200191508051906020019080838360005b83811015610e26578082015181840152602081019050610e0b565b50505050905090810190601f168015610e535780820380516001836020036101000a031916815260200191505b509850505050505050505060405180910390f35b610e6f612578565b6040518082815260200191505060405180910390f35b610e8d612581565b6040518082815260200191505060405180910390f35b61109460048036036080811015610eb957600080fd5b810190808035906020019092919080359060200190640100000000811115610ee057600080fd5b820183602082011115610ef257600080fd5b80359060200191846001830284011164010000000083111715610f1457600080fd5b91908080601f016020809104026020016040519081016040528093929190818152602001838380828437600081840152601f19601f82011690508083019250505050505050919291929080359060200190640100000000811115610f7757600080fd5b820183602082011115610f8957600080fd5b80359060200191846001830284011164010000000083111715610fab57600080fd5b91908080601f016020809104026020016040519081016040528093929190818152602001838380828437600081840152601f19601f8201169050808301925050505050505091929192908035906020019064010000000081111561100e57600080fd5b82018360208201111561102057600080fd5b8035906020019184600183028401116401000000008311171561104257600080fd5b91908080601f016020809104026020016040519081016040528093929190818152602001838380828437600081840152601f19601f82011690508083019250505050505050919291929050505061258b565b005b6110c2600480360360208110156110ac57600080fd5b8101908080359060200190929190505050612748565b005b6110f0600480360360208110156110da57600080fd5b81019080803590602001909291905050506128a9565b6040518082815260200191505060405180910390f35b61110e6128c6565b6040518082815260200191505060405180910390f35b61112c6128d0565b005b61115a6004803603602081101561114457600080fd5b8101908080359060200190929190505050612984565b6040518082815260200191505060405180910390f35b61119c6004803603602081101561118657600080fd5b81019080803590602001909291905050506129a1565b6040518082815260200191505060405180910390f35b6000821180156111c3575060005482105b611235576040517f08c379a00000000000000000000000000000000000000000000000000000000081526004018080602001828103825260138152602001807f4d697373696f6e20646f6e27742065786973740000000000000000000000000081525060200191505060405180910390fd5b6000811015801561124557508181105b61129a576040517f08c379a000000000000000000000000000000000000000000000000000000000815260040180806020018281038252602a815260200180612bec602a913960400191505060405180910390fd5b8060036000848152602001908152602001600020819055506112d9600160026000858152602001908152602001600020546129be90919063ffffffff16565b60026000848152602001908152602001600020819055505050565b60006005600087815260200190815260200160002060010160009054906101000a900473ffffffffffffffffffffffffffffffffffffffff1673ffffffffffffffffffffffffffffffffffffffff163373ffffffffffffffffffffffffffffffffffffffff16146113b0576040517f08c379a0000000000000000000000000000000000000000000000000000000008152600401808060200182810382526035815260200180612b646035913960400191505060405180910390fd5b6113b8612a46565b6040518060600160405280868152602001858152602001848152509050600b6000888152602001908152602001600020600087815260200190815260200160002081908060018154018082558091505090600182039060005260206000209060030201600090919290919091506000820151816000019080519060200190611441929190612a67565b50602082015181600101908051906020019061145e929190612a67565b50604082015181600201908051906020019061147b929190612a67565b505050506000600a600089815260200190815260200160002060008881526020019081526020016000205490506114bc6001826129be90919063ffffffff16565b600a60008a8152602001908152602001600020600089815260200190815260200160002081905550505095945050505050565b6000600a6000848152602001908152602001600020600083815260200190815260200160002054905092915050565b60008060008084600e600087815260200190815260200160002054600f600088815260200190815260200160002054601060008981526020019081526020016000205493509350935093509193509193565b600080826005600085815260200190815260200160002060010160009054906101000a900473ffffffffffffffffffffffffffffffffffffffff1691509150915091565b600060066000838152602001908152602001600020549050919050565b600080600083600d600086815260200190815260200160002060010160009054906101000a900460ff16600d600087815260200190815260200160002060010160019054906101000a900473ffffffffffffffffffffffffffffffffffffffff169250925092509193909250565b606080606060076000868152602001908152602001600020848154811061166257fe5b906000526020600020906003020160000160076000878152602001908152602001600020858154811061169157fe5b90600052602060002090600302016001016007600088815260200190815260200160002086815481106116c057fe5b9060005260206000209060030201600201828054600181600116156101000203166002900480601f0160208091040260200160405190810160405280929190818152602001828054600181600116156101000203166002900480156117665780601f1061173b57610100808354040283529160200191611766565b820191906000526020600020905b81548152906001019060200180831161174957829003601f168201915b50505050509250818054600181600116156101000203166002900480601f0160208091040260200160405190810160405280929190818152602001828054600181600116156101000203166002900480156118025780601f106117d757610100808354040283529160200191611802565b820191906000526020600020905b8154815290600101906020018083116117e557829003601f168201915b50505050509150808054600181600116156101000203166002900480601f01602080910402602001604051908101604052809291908181526020018280546001816001161561010002031660029004801561189e5780601f106118735761010080835404028352916020019161189e565b820191906000526020600020905b81548152906001019060200180831161188157829003601f168201915b505050505090509250925092509250925092565b604051806080016040528060005481526020018381526020013373ffffffffffffffffffffffffffffffffffffffff168152602001828152506001600080548152602001908152602001600020600082015181600001556020820151816001019080519060200190611925929190612a67565b5060408201518160020160006101000a81548173ffffffffffffffffffffffffffffffffffffffff021916908373ffffffffffffffffffffffffffffffffffffffff1602179055506060820151816003019080519060200190611989929190612a67565b509050506119a360016000546129be90919063ffffffff16565b6000819055505050565b6060806060600b6000878152602001908152602001600020600086815260200190815260200160002084815481106119e157fe5b9060005260206000209060030201600001600b600088815260200190815260200160002060008781526020019081526020016000208581548110611a2157fe5b9060005260206000209060030201600101600b600089815260200190815260200160002060008881526020019081526020016000208681548110611a6157fe5b9060005260206000209060030201600201828054600181600116156101000203166002900480601f016020809104026020016040519081016040528092919081815260200182805460018160011615610100020316600290048015611b075780601f10611adc57610100808354040283529160200191611b07565b820191906000526020600020905b815481529060010190602001808311611aea57829003601f168201915b50505050509250818054600181600116156101000203166002900480601f016020809104026020016040519081016040528092919081815260200182805460018160011615610100020316600290048015611ba35780601f10611b7857610100808354040283529160200191611ba3565b820191906000526020600020905b815481529060010190602001808311611b8657829003601f168201915b50505050509150808054600181600116156101000203166002900480601f016020809104026020016040519081016040528092919081815260200182805460018160011615610100020316600290048015611c3f5780601f10611c1457610100808354040283529160200191611c3f565b820191906000526020600020905b815481529060010190602001808311611c2257829003601f168201915b5050505050905092509250925093509350939050565b600060606000606084600160008781526020019081526020016000206001016001600088815260200190815260200160002060020160009054906101000a900473ffffffffffffffffffffffffffffffffffffffff1660016000898152602001908152602001600020600301828054600181600116156101000203166002900480601f016020809104026020016040519081016040528092919081815260200182805460018160011615610100020316600290048015611d565780601f10611d2b57610100808354040283529160200191611d56565b820191906000526020600020905b815481529060010190602001808311611d3957829003601f168201915b50505050509250808054600181600116156101000203166002900480601f016020809104026020016040519081016040528092919081815260200182805460018160011615610100020316600290048015611df25780601f10611dc757610100808354040283529160200191611df2565b820191906000526020600020905b815481529060010190602001808311611dd557829003601f168201915b5050505050905093509350935093509193509193565b60008410158015611e1f5750611e1c612581565b84105b611e91576040517f08c379a00000000000000000000000000000000000000000000000000000000081526004018080602001828103825260128152602001807f537461746520646f6e277420657869737473000000000000000000000000000081525060200191505060405180910390fd5b60008310158015611ea85750611ea5612578565b83105b611f1a576040517f08c379a00000000000000000000000000000000000000000000000000000000081526004018080602001828103825260138152602001807f4d697373696f6e20646f6e27742065786973740000000000000000000000000081525060200191505060405180910390fd5b60008210158015611f315750611f2e6128c6565b82105b611fa3576040517f08c379a00000000000000000000000000000000000000000000000000000000081526004018080602001828103825260178152602001807f436f6e7374697475656e7420646f6e277420657869737400000000000000000081525060200191505060405180910390fd5b60008110158015611fbb5750611fb882612984565b81105b61202d576040517f08c379a00000000000000000000000000000000000000000000000000000000081526004018080602001828103825260138152602001807f5365727669636520646f6e27742065786973740000000000000000000000000081525060200191505060405180910390fd5b82600e60008681526020019081526020016000208190555081600f60008681526020019081526020016000208190555080601060008681526020019081526020016000208190555050505050565b6005600087815260200190815260200160002060010160009054906101000a900473ffffffffffffffffffffffffffffffffffffffff1673ffffffffffffffffffffffffffffffffffffffff163373ffffffffffffffffffffffffffffffffffffffff1614612135576040517f08c379a0000000000000000000000000000000000000000000000000000000008152600401808060200182810382526027815260200180612c166027913960400191505060405180910390fd5b61213d612ae7565b6040518060c00160405280600860008a815260200190815260200160002054815260200187815260200186600481111561217357fe5b600481111561217e57fe5b815260200185815260200184600581111561219557fe5b60058111156121a057fe5b81526020018360058111156121b157fe5b60058111156121bc57fe5b8152509050600960008881526020019081526020016000208190806001815401808255809150509060018203906000526020600020906005020160009091929091909150600082015181600001556020820151816001019080519060200190612226929190612a67565b5060408201518160020160006101000a81548160ff0219169083600481111561224b57fe5b0217905550606082015181600301908051906020019061226c929190612a67565b5060808201518160040160006101000a81548160ff0219169083600581111561229157fe5b021790555060a08201518160040160016101000a81548160ff021916908360058111156122ba57fe5b02179055505050506122e96001600860008a8152602001908152602001600020546129be90919063ffffffff16565b600860008981526020019081526020016000208190555050505050505050565b600060606000606060008086600960008a8152602001908152602001600020888154811061233357fe5b9060005260206000209060050201600101600960008b8152602001908152602001600020898154811061236257fe5b906000526020600020906005020160020160009054906101000a900460ff16600960008c81526020019081526020016000208a8154811061239f57fe5b9060005260206000209060050201600301600960008d81526020019081526020016000208b815481106123ce57fe5b906000526020600020906005020160040160009054906101000a900460ff16600960008e81526020019081526020016000208c8154811061240b57fe5b906000526020600020906005020160040160019054906101000a900460ff16848054600181600116156101000203166002900480601f0160208091040260200160405190810160405280929190818152602001828054600181600116156101000203166002900480156124bf5780601f10612494576101008083540402835291602001916124bf565b820191906000526020600020905b8154815290600101906020018083116124a257829003601f168201915b50505050509450828054600181600116156101000203166002900480601f01602080910402602001604051908101604052809291908181526020018280546001816001161561010002031660029004801561255b5780601f106125305761010080835404028352916020019161255b565b820191906000526020600020905b81548152906001019060200180831161253e57829003601f168201915b505050505092509550955095509550955095509295509295509295565b60008054905090565b6000600c54905090565b6005600085815260200190815260200160002060010160009054906101000a900473ffffffffffffffffffffffffffffffffffffffff1673ffffffffffffffffffffffffffffffffffffffff163373ffffffffffffffffffffffffffffffffffffffff1614612645576040517f08c379a0000000000000000000000000000000000000000000000000000000008152600401808060200182810382526029815260200180612bc36029913960400191505060405180910390fd5b61264d612a46565b604051806060016040528085815260200184815260200183815250905060076000868152602001908152602001600020819080600181540180825580915050906001820390600052602060002090600302016000909192909190915060008201518160000190805190602001906126c5929190612a67565b5060208201518160010190805190602001906126e2929190612a67565b5060408201518160020190805190602001906126ff929190612a67565b5050505061272a600160066000888152602001908152602001600020546129be90919063ffffffff16565b60066000878152602001908152602001600020819055505050505050565b6000811015801561275a575060028111155b6127af576040517f08c379a000000000000000000000000000000000000000000000000000000000815260040180806020018281038252602a815260200180612b99602a913960400191505060405180910390fd5b6040518060600160405280600c5481526020018260028111156127ce57fe5b60028111156127d957fe5b81526020013373ffffffffffffffffffffffffffffffffffffffff16815250600d6000600c5481526020019081526020016000206000820151816000015560208201518160010160006101000a81548160ff0219169083600281111561283b57fe5b021790555060408201518160010160016101000a81548173ffffffffffffffffffffffffffffffffffffffff021916908373ffffffffffffffffffffffffffffffffffffffff1602179055509050506128a06001600c546129be90919063ffffffff16565b600c8190555050565b600060036000838152602001908152602001600020549050919050565b6000600454905090565b604051806040016040528060045481526020013373ffffffffffffffffffffffffffffffffffffffff168152506005600060045481526020019081526020016000206000820151816000015560208201518160010160006101000a81548173ffffffffffffffffffffffffffffffffffffffff021916908373ffffffffffffffffffffffffffffffffffffffff16021790555090505061297c60016004546129be90919063ffffffff16565b600481905550565b600060086000838152602001908152602001600020549050919050565b600060026000838152602001908152602001600020549050919050565b600080828401905083811015612a3c576040517f08c379a000000000000000000000000000000000000000000000000000000000815260040180806020018281038252601b8152602001807f536166654d6174683a206164646974696f6e206f766572666c6f77000000000081525060200191505060405180910390fd5b8091505092915050565b60405180606001604052806060815260200160608152602001606081525090565b828054600181600116156101000203166002900490600052602060002090601f016020900481019282601f10612aa857805160ff1916838001178555612ad6565b82800160010185558215612ad6579182015b82811115612ad5578251825591602001919060010190612aba565b5b509050612ae39190612b3e565b5090565b6040518060c00160405280600081526020016060815260200160006004811115612b0d57fe5b81526020016060815260200160006005811115612b2657fe5b815260200160006005811115612b3857fe5b81525090565b612b6091905b80821115612b5c576000816000905550600101612b44565b5090565b9056fe4f6e6c7920436f6e7374697475656e74206f776e65722063616e2061646420706172616d657465727320746f20736572766963657343414e4449444154453a20302c20415641494c41424c453a20312c20554e415641494c41424c453a20324f6e6c7920436f6e7374697475656e74206f776e65722063616e2061646420706172616d657465727353757065724d697373696f6e20697320657175616c206f72206d6f7265207468616e206d697373696f6e4f6e6c7920436f6e7374697475656e74206f776e65722063616e20616464207365727669636573a265627a7a723158208134c04214d1e60aa32a898cbaa085ecf23e9350d5d864452ce125f329caa1e664736f6c63430005100032",
  "source": "pragma solidity  >=0.5.16 <0.7.0;\r\n\r\nimport \"../node_modules/openzeppelin-solidity/contracts/math/SafeMath.sol\";\r\n\r\ncontract MissionsSoSService{\r\n\r\n    using SafeMath for uint;\r\n\r\n    enum HTTPMethod  {GET, POST, PATCH, PUT, DELETE}\r\n    enum ContentType {none, data, URL_encoded, raw, binary, GraphQL}\r\n    enum RAWDataType {none, Text, JavaScript, JSON, HTML, XML}\r\n    enum EnumState {CANDIDATE, AVAILABLE, UNAVAILABLE}\r\n\r\n   struct Mission {\r\n        uint missionCode;\r\n        string missionDescription;\r\n        address missionOwner;\r\n        string missionTag;\r\n    }\r\n\r\n    struct Parameter {\r\n        string parameterKey;\r\n        string parameterValue;\r\n        string parameterDescription;\r\n    }\r\n\r\n    struct Constituent {\r\n        uint constituentCode;\r\n        address constituentOwner;\r\n    }\r\n\r\n    struct Service {\r\n        uint serviceCode;\r\n        string serviceDescription;\r\n        HTTPMethod serviceHTTPMethod;\r\n        string serviceURL;\r\n        ContentType serviceContentType;\r\n        RAWDataType serviceRAWDataType;\r\n    }\r\n\r\n    struct State {\r\n        uint stateCode;\r\n        EnumState stateState;\r\n        address stateOwner;\r\n    }\r\n\r\n\r\n    //--------Mission---------\r\n    uint private _totalMission;\r\n    mapping(uint => Mission) private missionMap;\r\n\r\n    //-------Mission SuperMission-------\r\n    mapping(uint => uint) private _totalMissionSuperMission;\r\n    mapping(uint => uint) private missionSuperMissionMap;\r\n\r\n    //-------Constituent-------\r\n    uint private _totalConstituent;\r\n    mapping(uint => Constituent) private constituentMap;\r\n    //--Constituent Parameter--\r\n    mapping(uint => uint) private _totalConstituentParameter;\r\n    mapping(uint => Parameter[]) private constituentParameterMap;\r\n    //---Constituent Service---\r\n    mapping(uint => uint) private _totalConstituentService;\r\n    mapping(uint => Service[]) private constituentServiceMap;\r\n\r\n    //-------Constituent Service Parameter-------\r\n    mapping(uint => mapping(uint => uint)) private _totalConstituentServiceParameter;\r\n    mapping(uint => mapping(uint => Parameter[])) private constituentServiceParameterMap;\r\n\r\n    //-------State-------\r\n    uint private _totalState;\r\n    mapping(uint => State) private stateMap;\r\n\r\n    //-------State Mission ---------\r\n    mapping(uint => uint) private stateMissionMap;\r\n\r\n    //-------State Constituent ---------\r\n    mapping(uint => uint) private stateConstituentMap;\r\n\r\n    //-------State Service ---------\r\n    mapping(uint => uint) private stateServiceMap;\r\n\r\n\r\n\r\n\r\n    //--------Mission---------\r\n\r\n    function totalMission() public view returns (uint) {\r\n        return _totalMission;\r\n    }\r\n\r\n    function setMission(string memory _missionDescription, string memory _missionTag) public {\r\n        missionMap[_totalMission] = Mission(_totalMission, _missionDescription, msg.sender, _missionTag);\r\n        _totalMission = _totalMission.add(1);\r\n    }\r\n\r\n    function mission(uint  _missionCode) public view returns (uint, string memory, address, string memory) {\r\n        return (_missionCode,\r\n            missionMap[_missionCode].missionDescription,\r\n            missionMap[_missionCode].missionOwner,\r\n            missionMap[_missionCode].missionTag\r\n        );\r\n    }\r\n\r\n    //-----------Mission SuperMission -----------\r\n    function totalMissionSuperMission(uint _missionCode) public view returns (uint) {\r\n        return _totalMissionSuperMission[_missionCode];\r\n    }\r\n\r\n    function setMissionSuperMission(uint _missionCode, uint _superMissionCode) public {\r\n        require(_missionCode>0&&_missionCode<_totalMission,\"Mission don't exist\");\r\n        require(_superMissionCode>=0&&_superMissionCode<_missionCode,\"SuperMission is equal or more than mission\");\r\n        missionSuperMissionMap[_missionCode] = _superMissionCode;\r\n        _totalMissionSuperMission[_missionCode] = _totalMissionSuperMission[_missionCode].add(1);\r\n    }\r\n\r\n    function missionSuperMission(uint  _missionCode) public view returns (uint) {\r\n        return (missionSuperMissionMap[_missionCode]);\r\n    }\r\n\r\n    //-------Constituent-------\r\n\r\n    function totalConstituent() public view returns (uint) {\r\n        return _totalConstituent;\r\n    }\r\n\r\n    function setConstituent() public {\r\n        constituentMap[_totalConstituent] = Constituent(_totalConstituent, msg.sender);\r\n        _totalConstituent = _totalConstituent.add(1);\r\n    }\r\n\r\n    function constituent(uint  _constituentCode) public view returns (uint, address) {\r\n        return (_constituentCode, constituentMap[_constituentCode].constituentOwner);\r\n    }\r\n\r\n    //--Constituent Parameter--\r\n\r\n    function setConstituentParameter(uint  _constituentCode,\r\n    string memory _parameterKey,string memory _parameterValue,\r\n    string memory _parameterDescription) public {\r\n        require(msg.sender==constituentMap[_constituentCode].constituentOwner,\"Only Constituent owner can add parameters\");\r\n        Parameter memory _parameter = Parameter(_parameterKey,\r\n        _parameterValue, _parameterDescription);\r\n        constituentParameterMap[_constituentCode].push(_parameter);\r\n        _totalConstituentParameter[_constituentCode] = _totalConstituentParameter[_constituentCode].add(1);\r\n\r\n    }\r\n\r\n    function totalConstituentParameter(uint _constituentCode) public view returns (uint) {\r\n        return _totalConstituentParameter[_constituentCode];\r\n    }\r\n\r\n    function constituentParameter(uint  _constituentCode,\r\n    uint _parameterCode) public view returns (string memory, string memory, string memory) {\r\n        return (constituentParameterMap[_constituentCode][_parameterCode].parameterKey,\r\n            constituentParameterMap[_constituentCode][_parameterCode].parameterValue,\r\n            constituentParameterMap[_constituentCode][_parameterCode].parameterDescription\r\n        );\r\n    }\r\n\r\n    //--Constituent Service----\r\n\r\n    function setConstituentService(uint  _constituentCode,\r\n    string memory _serviceDescription,uint _serviceHTTPMethod,\r\n    string memory serviceURL, uint _serviceContentType,\r\n    uint _serviceRAWDataType) public {\r\n        require(msg.sender==constituentMap[_constituentCode].constituentOwner,\"Only Constituent owner can add services\");\r\n        Service memory _service = Service(_totalConstituentService[_constituentCode],\r\n        _serviceDescription, HTTPMethod(_serviceHTTPMethod),serviceURL,\r\n        ContentType(_serviceContentType),RAWDataType(_serviceRAWDataType));\r\n        constituentServiceMap[_constituentCode].push(_service);\r\n        _totalConstituentService[_constituentCode] = _totalConstituentService[_constituentCode].add(1);\r\n    }\r\n\r\n    function totalConstituentService(uint _constituentCode) public view returns (uint) {\r\n        return _totalConstituentService[_constituentCode];\r\n    }\r\n\r\n    function constituentService(uint  _constituentCode,uint _serviceCode)\r\n    public view returns (uint, string memory, HTTPMethod,string memory,ContentType,RAWDataType) {\r\n        return (_serviceCode,\r\n            constituentServiceMap[_constituentCode][_serviceCode].serviceDescription,\r\n            constituentServiceMap[_constituentCode][_serviceCode].serviceHTTPMethod,\r\n            constituentServiceMap[_constituentCode][_serviceCode].serviceURL,\r\n            constituentServiceMap[_constituentCode][_serviceCode].serviceContentType,\r\n            constituentServiceMap[_constituentCode][_serviceCode].serviceRAWDataType\r\n        );\r\n    }\r\n\r\n    //--Constituent Service Parameter--\r\n\r\n    function setConstituentServiceParameter(uint  _constituentCode,uint  _serviceCode,\r\n    string memory _parameterKey,string memory _parameterValue,\r\n    string memory _parameterDescription) public returns (bool) {\r\n        require(msg.sender==constituentMap[_constituentCode].constituentOwner,\"Only Constituent owner can add parameters to services\");\r\n        Parameter memory _parameter = Parameter(_parameterKey, _parameterValue,_parameterDescription);\r\n        constituentServiceParameterMap[_constituentCode][_serviceCode].push(_parameter);\r\n        uint auxTotal = _totalConstituentServiceParameter[_constituentCode][_serviceCode];\r\n        _totalConstituentServiceParameter[_constituentCode][_serviceCode] = auxTotal.add(1);\r\n    }\r\n\r\n    function totalConstituentServiceParameter(uint _constituentCode,\r\n    uint _serviceCode) public view returns (uint) {\r\n        return _totalConstituentServiceParameter[_constituentCode][_serviceCode];\r\n    }\r\n\r\n    function constituentServiceParameter(uint  _constituentCode,\r\n    uint _serviceCode, uint _parameterCode)\r\n    public view returns (string memory, string memory, string memory) {\r\n        return (\r\n            (constituentServiceParameterMap[_constituentCode][_serviceCode])[_parameterCode].parameterKey,\r\n            (constituentServiceParameterMap[_constituentCode][_serviceCode])[_parameterCode].parameterValue,\r\n            (constituentServiceParameterMap[_constituentCode][_serviceCode])[_parameterCode].parameterDescription\r\n        );\r\n    }\r\n\r\n    //-----------State  -----------\r\n\r\n    function totalState() public view returns (uint) {\r\n        return _totalState;\r\n    }\r\n\r\n    function setState(uint _stateState) public {\r\n        require(_stateState>=0&&_stateState<=2,\"CANDIDATE: 0, AVAILABLE: 1, UNAVAILABLE: 2\");\r\n        stateMap[_totalState] = State(_totalState, EnumState(_stateState), msg.sender);\r\n        _totalState = _totalState.add(1);\r\n    }\r\n\r\n    function state(uint  _stateCode) public view returns (uint, EnumState, address) {\r\n        return (_stateCode,\r\n            stateMap[_stateCode].stateState,\r\n            stateMap[_stateCode].stateOwner\r\n        );\r\n    }\r\n\r\n    //-----------State Mission Constituent Service -----------\r\n\r\n    function setStateMissionConstituentService(uint _stateCode,uint _missionCode,\r\n    uint _constituentCode, uint _serviceCode) public {\r\n        require(_stateCode>=0 && _stateCode<totalState(),\"State don't exists\");\r\n        require(_missionCode>=0 && _missionCode<totalMission(),\"Mission don't exist\");\r\n        require(_constituentCode>=0 && _constituentCode<totalConstituent(),\"Constituent don't exist\");\r\n        require(_serviceCode>=0 && _serviceCode<totalConstituentService(_constituentCode),\"Service don't exist\");\r\n        stateMissionMap[_stateCode] = _missionCode;\r\n        stateConstituentMap[_stateCode] = _constituentCode;\r\n        stateServiceMap[_stateCode] = _serviceCode;\r\n    }\r\n\r\n    function stateMissionConstituentService(uint _stateCode)\r\n    public view returns (uint, uint, uint, uint){\r\n        return (\r\n            _stateCode,\r\n            stateMissionMap[_stateCode],\r\n            stateConstituentMap[_stateCode],\r\n            stateServiceMap[_stateCode]\r\n        );\r\n    }\r\n\r\n}",
  "sourcePath": "D:\\TokenZeppelin\\contracts\\MissionsSoSService.sol",
  "compiler": {
    "name": "solc",
    "version": "0.5.16+commit.9c3226ce.Emscripten.clang"
  },
  "schemaVersion": "3.0.23",
  "updatedAt": "2020-02-28T19:15:54.290Z",
  "networkType": "ethereum",
  "devdoc": {
    "methods": {}
  },
  "userdoc": {
    "methods": {}
  }
}