{
  "contractName": "PruebaToken",
  "abi": [
    {
      "inputs": [],
      "payable": false,
      "stateMutability": "nonpayable",
      "type": "constructor"
    },
    {
      "constant": true,
      "inputs": [],
      "name": "confidenceToken",
      "outputs": [
        {
          "internalType": "contract ConfidenceToken",
          "name": "",
          "type": "address"
        }
      ],
      "payable": false,
      "stateMutability": "view",
      "type": "function"
    },
    {
      "constant": true,
      "inputs": [],
      "name": "confidenceTokenName",
      "outputs": [
        {
          "internalType": "string",
          "name": "",
          "type": "string"
        }
      ],
      "payable": false,
      "stateMutability": "view",
      "type": "function"
    },
    {
      "constant": true,
      "inputs": [
        {
          "internalType": "address",
          "name": "_owner",
          "type": "address"
        },
        {
          "internalType": "address",
          "name": "_spender",
          "type": "address"
        }
      ],
      "name": "getAprobaciones",
      "outputs": [
        {
          "internalType": "uint256",
          "name": "",
          "type": "uint256"
        }
      ],
      "payable": false,
      "stateMutability": "view",
      "type": "function"
    },
    {
      "constant": true,
      "inputs": [
        {
          "internalType": "address",
          "name": "_address",
          "type": "address"
        }
      ],
      "name": "getBalance",
      "outputs": [
        {
          "internalType": "uint256",
          "name": "",
          "type": "uint256"
        }
      ],
      "payable": false,
      "stateMutability": "view",
      "type": "function"
    },
    {
      "constant": false,
      "inputs": [
        {
          "internalType": "address",
          "name": "_addressRecipient",
          "type": "address"
        },
        {
          "internalType": "uint256",
          "name": "_monto",
          "type": "uint256"
        }
      ],
      "name": "setTransferencia",
      "outputs": [],
      "payable": false,
      "stateMutability": "nonpayable",
      "type": "function"
    }
  ],
  "bytecode": "0x608060405234801561001057600080fd5b507399e9af23c8982302df19c652e6569e12e7f172d26000806101000a81548173ffffffffffffffffffffffffffffffffffffffff021916908373ffffffffffffffffffffffffffffffffffffffff160217905550610605806100746000396000f3fe608060405234801561001057600080fd5b50600436106100575760003560e01c806376418ef31461005c578063ba6fc954146100df578063cc089f781461012d578063d0344d1f146101a5578063f8b2cb4f146101ef575b600080fd5b610064610247565b6040518080602001828103825283818151815260200191508051906020019080838360005b838110156100a4578082015181840152602081019050610089565b50505050905090810190601f1680156100d15780820380516001836020036101000a031916815260200191505b509250505060405180910390f35b61012b600480360360408110156100f557600080fd5b81019080803573ffffffffffffffffffffffffffffffffffffffff169060200190929190803590602001909291905050506103ae565b005b61018f6004803603604081101561014357600080fd5b81019080803573ffffffffffffffffffffffffffffffffffffffff169060200190929190803573ffffffffffffffffffffffffffffffffffffffff1690602001909291905050506103b2565b6040518082815260200191505060405180910390f35b6101ad6104c9565b604051808273ffffffffffffffffffffffffffffffffffffffff1673ffffffffffffffffffffffffffffffffffffffff16815260200191505060405180910390f35b6102316004803603602081101561020557600080fd5b81019080803573ffffffffffffffffffffffffffffffffffffffff1690602001909291905050506104ee565b6040518082815260200191505060405180910390f35b60606000809054906101000a900473ffffffffffffffffffffffffffffffffffffffff1673ffffffffffffffffffffffffffffffffffffffff166306fdde036040518163ffffffff1660e01b815260040160006040518083038186803b1580156102b057600080fd5b505afa1580156102c4573d6000803e3d6000fd5b505050506040513d6000823e3d601f19601f8201168201806040525060208110156102ee57600080fd5b810190808051604051939291908464010000000082111561030e57600080fd5b8382019150602082018581111561032457600080fd5b825186600182028301116401000000008211171561034157600080fd5b8083526020830192505050908051906020019080838360005b8381101561037557808201518184015260208101905061035a565b50505050905090810190601f1680156103a25780820380516001836020036101000a031916815260200191505b50604052505050905090565b5050565b60008060009054906101000a900473ffffffffffffffffffffffffffffffffffffffff1673ffffffffffffffffffffffffffffffffffffffff1663dd62ed3e84846040518363ffffffff1660e01b8152600401808373ffffffffffffffffffffffffffffffffffffffff1673ffffffffffffffffffffffffffffffffffffffff1681526020018273ffffffffffffffffffffffffffffffffffffffff1673ffffffffffffffffffffffffffffffffffffffff1681526020019250505060206040518083038186803b15801561048657600080fd5b505afa15801561049a573d6000803e3d6000fd5b505050506040513d60208110156104b057600080fd5b8101908080519060200190929190505050905092915050565b6000809054906101000a900473ffffffffffffffffffffffffffffffffffffffff1681565b60008060009054906101000a900473ffffffffffffffffffffffffffffffffffffffff1673ffffffffffffffffffffffffffffffffffffffff166370a08231836040518263ffffffff1660e01b8152600401808273ffffffffffffffffffffffffffffffffffffffff1673ffffffffffffffffffffffffffffffffffffffff16815260200191505060206040518083038186803b15801561058e57600080fd5b505afa1580156105a2573d6000803e3d6000fd5b505050506040513d60208110156105b857600080fd5b8101908080519060200190929190505050905091905056fea265627a7a723158209991b500220c55375cbbcabb8662c2259fc31b7ab15579a41a9156acef06a13b64736f6c63430005100032",
  "source": "pragma solidity  >=0.5.16 <0.7.0;\r\n\r\nimport \"../node_modules/openzeppelin-solidity/contracts/math/SafeMath.sol\";\r\nimport \"./ConfidenceToken.sol\";\r\n\r\n\r\ncontract PruebaToken{\r\n\r\n    using SafeMath for uint;\r\n    //-------------Token-------------\r\n    ConfidenceToken public confidenceToken;\r\n\r\n    function confidenceTokenName() public view returns (string memory) {\r\n        return confidenceToken.name();\r\n    }\r\n\r\n    //--------Constructor---------\r\n\r\n    constructor() public{\r\n        confidenceToken = ConfidenceToken(0x99E9Af23C8982302DF19c652E6569E12E7F172d2);\r\n    }\r\n\r\n\r\n    //--------Ver Aprobaciones---------\r\n\r\n    function getAprobaciones(address _owner, address _spender) public view returns(uint256)\r\n    {\r\n        return confidenceToken.allowance(_owner,_spender);\r\n    }\r\n\r\n    //--------Ver Balances---------\r\n\r\n    function getBalance(address _address) public view returns(uint256)\r\n    {\r\n        return confidenceToken.balanceOf(_address);\r\n    }\r\n\r\n\r\n    //--------Hacer Transferencias--------\r\n    function setTransferencia(address _addressRecipient, uint256 _monto) external\r\n    {\r\n       \r\n    }\r\n\r\n}",
  "sourcePath": "D:\\pruebas\\zeppelinConfidenceToken\\contracts\\PruebaToken.sol",
  "compiler": {
    "name": "solc",
    "version": "0.5.16+commit.9c3226ce.Emscripten.clang"
  },
  "schemaVersion": "3.0.23",
  "updatedAt": "2020-02-29T18:52:58.704Z",
  "devdoc": {
    "methods": {}
  },
  "userdoc": {
    "methods": {}
  }
}